{
  "abi": [
    {
      "constant": true,
      "inputs": [
        {
          "name": "",
          "type": "uint256"
        }
      ],
      "name": "proposals",
      "outputs": [
        {
          "name": "recipient",
          "type": "address"
        },
        {
          "name": "amount",
          "type": "uint256"
        },
        {
          "name": "metadataHash",
          "type": "bytes"
        },
        {
          "name": "timeCreated",
          "type": "uint256"
        },
        {
          "name": "votingDeadline",
          "type": "uint256"
        },
        {
          "name": "finalized",
          "type": "bool"
        },
        {
          "name": "proposalPassed",
          "type": "bool"
        },
        {
          "name": "numberOfVotes",
          "type": "uint256"
        },
        {
          "name": "proposalHash",
          "type": "bytes32"
        }
      ],
      "payable": false,
      "stateMutability": "view",
      "type": "function"
    },
    {
      "constant": true,
      "inputs": [
        {
          "name": "",
          "type": "address"
        }
      ],
      "name": "delegatesByDelegator",
      "outputs": [
        {
          "name": "",
          "type": "address"
        }
      ],
      "payable": false,
      "stateMutability": "view",
      "type": "function"
    },
    {
      "constant": true,
      "inputs": [
        {
          "name": "",
          "type": "address"
        }
      ],
      "name": "lockedDelegatingTokens",
      "outputs": [
        {
          "name": "",
          "type": "uint256"
        }
      ],
      "payable": false,
      "stateMutability": "view",
      "type": "function"
    },
    {
      "constant": true,
      "inputs": [
        {
          "name": "proposalNumber",
          "type": "uint256"
        }
      ],
      "name": "countVotes",
      "outputs": [
        {
          "name": "yea",
          "type": "uint256"
        },
        {
          "name": "nay",
          "type": "uint256"
        },
        {
          "name": "quorum",
          "type": "uint256"
        }
      ],
      "payable": false,
      "stateMutability": "view",
      "type": "function"
    },
    {
      "constant": false,
      "inputs": [
        {
          "name": "proposalNumber",
          "type": "uint256"
        },
        {
          "name": "transactionBytecode",
          "type": "bytes"
        }
      ],
      "name": "executeProposal",
      "outputs": [],
      "payable": false,
      "stateMutability": "nonpayable",
      "type": "function"
    },
    {
      "constant": true,
      "inputs": [],
      "name": "sharesTokenAddress",
      "outputs": [
        {
          "name": "",
          "type": "address"
        }
      ],
      "payable": false,
      "stateMutability": "view",
      "type": "function"
    },
    {
      "constant": true,
      "inputs": [
        {
          "name": "",
          "type": "address"
        }
      ],
      "name": "delegatedAmountsByDelegate",
      "outputs": [
        {
          "name": "",
          "type": "uint256"
        }
      ],
      "payable": false,
      "stateMutability": "view",
      "type": "function"
    },
    {
      "constant": true,
      "inputs": [],
      "name": "numProposals",
      "outputs": [
        {
          "name": "",
          "type": "uint256"
        }
      ],
      "payable": false,
      "stateMutability": "view",
      "type": "function"
    },
    {
      "constant": true,
      "inputs": [
        {
          "name": "proposalNumber",
          "type": "uint256"
        },
        {
          "name": "shareholder",
          "type": "address"
        }
      ],
      "name": "hasVoted",
      "outputs": [
        {
          "name": "",
          "type": "bool"
        }
      ],
      "payable": false,
      "stateMutability": "view",
      "type": "function"
    },
    {
      "constant": false,
      "inputs": [
        {
          "name": "tokensToLock",
          "type": "uint256"
        },
        {
          "name": "delegate",
          "type": "address"
        }
      ],
      "name": "setDelegateAndLockTokens",
      "outputs": [],
      "payable": false,
      "stateMutability": "nonpayable",
      "type": "function"
    },
    {
      "constant": false,
      "inputs": [],
      "name": "clearDelegateAndUnlockTokens",
      "outputs": [
        {
          "name": "lockedTokens",
          "type": "uint256"
        }
      ],
      "payable": false,
      "stateMutability": "nonpayable",
      "type": "function"
    },
    {
      "constant": true,
      "inputs": [],
      "name": "debatingPeriodInMinutes",
      "outputs": [
        {
          "name": "",
          "type": "uint256"
        }
      ],
      "payable": false,
      "stateMutability": "view",
      "type": "function"
    },
    {
      "constant": false,
      "inputs": [
        {
          "name": "minimumSharesToPassAVote",
          "type": "uint256"
        },
        {
          "name": "minutesForDebate",
          "type": "uint256"
        },
        {
          "name": "sharesToBeBoardMember",
          "type": "uint256"
        }
      ],
      "name": "changeVotingRules",
      "outputs": [],
      "payable": false,
      "stateMutability": "nonpayable",
      "type": "function"
    },
    {
      "constant": true,
      "inputs": [],
      "name": "minimumQuorum",
      "outputs": [
        {
          "name": "",
          "type": "uint256"
        }
      ],
      "payable": false,
      "stateMutability": "view",
      "type": "function"
    },
    {
      "constant": false,
      "inputs": [
        {
          "name": "from",
          "type": "address"
        },
        {
          "name": "value",
          "type": "uint256"
        },
        {
          "name": "token",
          "type": "address"
        },
        {
          "name": "extraData",
          "type": "bytes"
        }
      ],
      "name": "receiveApproval",
      "outputs": [],
      "payable": false,
      "stateMutability": "nonpayable",
      "type": "function"
    },
    {
      "constant": true,
      "inputs": [],
      "name": "tokenLocker",
      "outputs": [
        {
          "name": "",
          "type": "address"
        }
      ],
      "payable": false,
      "stateMutability": "view",
      "type": "function"
    },
    {
      "constant": true,
      "inputs": [],
      "name": "requiredSharesToBeBoardMember",
      "outputs": [
        {
          "name": "",
          "type": "uint256"
        }
      ],
      "payable": false,
      "stateMutability": "view",
      "type": "function"
    },
    {
      "constant": false,
      "inputs": [
        {
          "name": "proposalNumber",
          "type": "uint256"
        },
        {
          "name": "supportsProposal",
          "type": "bool"
        }
      ],
      "name": "vote",
      "outputs": [
        {
          "name": "voteID",
          "type": "uint256"
        }
      ],
      "payable": false,
      "stateMutability": "nonpayable",
      "type": "function"
    },
    {
      "constant": false,
      "inputs": [
        {
          "name": "beneficiary",
          "type": "address"
        },
        {
          "name": "weiAmount",
          "type": "uint256"
        },
        {
          "name": "jobMetadataHash",
          "type": "bytes"
        },
        {
          "name": "transactionBytecode",
          "type": "bytes"
        }
      ],
      "name": "newProposal",
      "outputs": [
        {
          "name": "proposalID",
          "type": "uint256"
        }
      ],
      "payable": false,
      "stateMutability": "nonpayable",
      "type": "function"
    },
    {
      "constant": true,
      "inputs": [
        {
          "name": "proposalNumber",
          "type": "uint256"
        },
        {
          "name": "beneficiary",
          "type": "address"
        },
        {
          "name": "weiAmount",
          "type": "uint256"
        },
        {
          "name": "transactionBytecode",
          "type": "bytes"
        }
      ],
      "name": "checkProposalCode",
      "outputs": [
        {
          "name": "codeChecksOut",
          "type": "bool"
        }
      ],
      "payable": false,
      "stateMutability": "view",
      "type": "function"
    },
    {
      "constant": true,
      "inputs": [],
      "name": "totalLockedTokens",
      "outputs": [
        {
          "name": "",
          "type": "uint256"
        }
      ],
      "payable": false,
      "stateMutability": "view",
      "type": "function"
    },
    {
      "payable": true,
      "stateMutability": "payable",
      "type": "fallback"
    },
    {
      "anonymous": false,
      "inputs": [
        {
          "indexed": false,
          "name": "proposalID",
          "type": "uint256"
        },
        {
          "indexed": false,
          "name": "recipient",
          "type": "address"
        },
        {
          "indexed": false,
          "name": "amount",
          "type": "uint256"
        },
        {
          "indexed": false,
          "name": "metadataHash",
          "type": "bytes"
        }
      ],
      "name": "ProposalAdded",
      "type": "event"
    },
    {
      "anonymous": false,
      "inputs": [
        {
          "indexed": false,
          "name": "proposalID",
          "type": "uint256"
        },
        {
          "indexed": false,
          "name": "position",
          "type": "bool"
        },
        {
          "indexed": false,
          "name": "voter",
          "type": "address"
        }
      ],
      "name": "Voted",
      "type": "event"
    },
    {
      "anonymous": false,
      "inputs": [
        {
          "indexed": false,
          "name": "proposalID",
          "type": "uint256"
        },
        {
          "indexed": false,
          "name": "yea",
          "type": "uint256"
        },
        {
          "indexed": false,
          "name": "nay",
          "type": "uint256"
        },
        {
          "indexed": false,
          "name": "quorum",
          "type": "uint256"
        },
        {
          "indexed": false,
          "name": "active",
          "type": "bool"
        }
      ],
      "name": "ProposalTallied",
      "type": "event"
    },
    {
      "anonymous": false,
      "inputs": [
        {
          "indexed": false,
          "name": "newMinimumQuorum",
          "type": "uint256"
        },
        {
          "indexed": false,
          "name": "newDebatingPeriodInMinutes",
          "type": "uint256"
        },
        {
          "indexed": false,
          "name": "newSharesTokenAddress",
          "type": "address"
        }
      ],
      "name": "ChangeOfRules",
      "type": "event"
    },
    {
      "anonymous": false,
      "inputs": [
        {
          "indexed": true,
          "name": "delegator",
          "type": "address"
        },
        {
          "indexed": false,
          "name": "numberOfTokens",
          "type": "uint256"
        },
        {
          "indexed": true,
          "name": "delegate",
          "type": "address"
        }
      ],
      "name": "TokensDelegated",
      "type": "event"
    },
    {
      "anonymous": false,
      "inputs": [
        {
          "indexed": true,
          "name": "delegator",
          "type": "address"
        },
        {
          "indexed": false,
          "name": "numberOfTokens",
          "type": "uint256"
        },
        {
          "indexed": true,
          "name": "delegate",
          "type": "address"
        }
      ],
      "name": "TokensUndelegated",
      "type": "event"
    },
    {
      "anonymous": false,
      "inputs": [
        {
          "indexed": true,
          "name": "sender",
          "type": "address"
        },
        {
          "indexed": false,
          "name": "amount",
          "type": "uint256"
        }
      ],
      "name": "ReceivedEther",
      "type": "event"
    },
    {
      "anonymous": false,
      "inputs": [
        {
          "indexed": true,
          "name": "from",
          "type": "address"
        },
        {
          "indexed": false,
          "name": "value",
          "type": "uint256"
        },
        {
          "indexed": true,
          "name": "token",
          "type": "address"
        },
        {
          "indexed": false,
          "name": "extraData",
          "type": "bytes"
        }
      ],
      "name": "ReceivedTokens",
      "type": "event"
    }
  ],
  "bytecode": {
    "object": "0x608060405234801561001057600080fd5b50611af0806100206000396000f30060806040526004361061011c5763ffffffff7c0100000000000000000000000000000000000000000000000000000000600035041663013cf08b811461015d578063064cc7a71461023b57806313f47f24146102785780631840f0ca146102ab578063237e9492146102e157806327ebcf0e146103415780633fb3ec2814610356578063400e394914610377578063438596321461038c5780635fa7df6b146103c4578063645bd436146103e857806369bd3436146103fd5780636e676b69146104125780638160f0b5146104305780638f4ffcb114610445578063a80bf3e6146104b5578063b94fa03f146104ca578063c9d27afe146104df578063dbc45228146104fc578063eceb2945146105a3578063f5c476f914610612575b604080513481529051600160a060020a033316917fa419615bc8fda4c87663805ee2a3597a6d71c1d476911d9892f340d965bc7bf1919081900360200190a2005b34801561016957600080fd5b50610175600435610627565b60408051600160a060020a038b16815260208082018b9052606082018990526080820188905286151560a083015285151560c083015260e0820185905261010082018490526101209282018381528a519383019390935289519192916101408401918b019080838360005b838110156101f85781810151838201526020016101e0565b50505050905090810190601f1680156102255780820380516001836020036101000a031916815260200191505b509a505050505050505050505060405180910390f35b34801561024757600080fd5b5061025c600160a060020a036004351661071c565b60408051600160a060020a039092168252519081900360200190f35b34801561028457600080fd5b50610299600160a060020a0360043516610737565b60408051918252519081900360200190f35b3480156102b757600080fd5b506102c3600435610749565b60408051938452602084019290925282820152519081900360600190f35b3480156102ed57600080fd5b5060408051602060046024803582810135601f810185900485028601850190965285855261033f9583359536956044949193909101919081908401838280828437509497506108aa9650505050505050565b005b34801561034d57600080fd5b5061025c610afd565b34801561036257600080fd5b50610299600160a060020a0360043516610b0c565b34801561038357600080fd5b50610299610b1e565b34801561039857600080fd5b506103b0600435600160a060020a0360243516610b24565b604080519115158252519081900360200190f35b3480156103d057600080fd5b5061033f600435600160a060020a0360243516610b6c565b3480156103f457600080fd5b50610299610e59565b34801561040957600080fd5b506102996110bc565b34801561041e57600080fd5b5061033f6004356024356044356110c2565b34801561043c57600080fd5b5061029961114d565b34801561045157600080fd5b50604080516020601f60643560048181013592830184900484028501840190955281845261033f94600160a060020a038135811695602480359660443590931695369560849492019181908401838280828437509497506111539650505050505050565b3480156104c157600080fd5b5061025c6112ba565b3480156104d657600080fd5b506102996112c9565b3480156104eb57600080fd5b5061029960043560243515156112cf565b34801561050857600080fd5b50604080516020600460443581810135601f8101849004840285018401909552848452610299948235600160a060020a031694602480359536959460649492019190819084018382808284375050604080516020601f89358b018035918201839004830284018301909452808352979a9998810197919650918201945092508291508401838280828437509497506115039650505050505050565b3480156105af57600080fd5b50604080516020601f6064356004818101359283018490048402850184019095528184526103b094803594600160a060020a0360248035919091169560443595369560849493019181908401838280828437509497506117d39650505050505050565b34801561061e57600080fd5b50610299611895565b600280548290811061063557fe5b6000918252602091829020600a91909102018054600180830154600280850180546040805161010096831615969096026000190190911692909204601f8101889004880285018801909252818452600160a060020a03909416965090949192918301828280156106e65780601f106106bb576101008083540402835291602001916106e6565b820191906000526020600020905b8154815290600101906020018083116106c957829003601f168201915b5050505060038301546004840154600585015460068601546007909601549495929491935060ff80821693610100909204169189565b600560205260009081526040902054600160a060020a031681565b60066020526000908152604090205481565b600080600080600080600060028881548110151561076357fe5b90600052602060002090600a02019350600096506000955060009450600092505b600884015483101561089f57600884018054849081106107a057fe5b60009182526020808320600480549390910180546040805160e060020a6370a08231028152600160a060020a036101009093048316948101949094525191975061085d959416936370a0823193602480850194919392918390030190829087803b15801561080d57600080fd5b505af1158015610821573d6000803e3d6000fd5b505050506040513d602081101561083757600080fd5b505183546101009004600160a060020a031660009081526007602052604090205461189b565b9050610869858261189b565b825490955060ff161561088757610880878261189b565b9650610894565b610891868261189b565b95505b826001019250610784565b505050509193909250565b60008060008030600160a060020a031633600160a060020a0316141515156108d157600080fd5b60028054879081106108df57fe5b90600052602060002090600a02019350836004015442101580156109085750600584015460ff16155b80156109a65750835460018501546040516c01000000000000000000000000600160a060020a039093169283028152601481018290528751889190603482019060208401908083835b602083106109705780518252601f199092019160209182019101610951565b5181516020939093036101000a6000190180199091169216919091179052604051920182900390912060078a0154149450505050505b15156109b157600080fd5b6109ba86610749565b60005492955090935091508110156109d157600080fd5b60058401805460ff1916600117905581831115610a8b5760058401805461ff001916610100179055835460018501546040518751600160a060020a03909316928891908190602084019080838360005b83811015610a39578181015183820152602001610a21565b50505050905090810190601f168015610a665780820380516001836020036101000a031916815260200191505b5091505060006040518083038185875af1925050501515610a8657600080fd5b610a99565b60058401805461ff00191690555b600584015460408051888152602081018690528082018590526060810184905261010090920460ff1615156080830152517f748f0810c68633063bb13f3c71e10cd1889925b3721d6e567114d0632574a3969160a0908290030190a1505050505050565b600454600160a060020a031681565b60076020526000908152604090205481565b60035481565b600080600284815481101515610b3657fe5b60009182526020808320600160a060020a03969096168352600a919091029094016009019093525050604090205460ff16919050565b600480546040805160e060020a6370a08231028152600160a060020a03338116948201949094529051600093909216916370a082319160248082019260209290919082900301818787803b158015610bc357600080fd5b505af1158015610bd7573d6000803e3d6000fd5b505050506040513d6020811015610bed57600080fd5b505111610bf957600080fd5b600160a060020a033381166000908152600560205260409020541615610c1e57600080fd5b30600160a060020a031633600160a060020a031614151515610c3f57600080fd5b600160a060020a0333811660009081526006602090815260408083208690559284168252600790522054610c73908361189b565b600160a060020a038216600090815260076020526040902055600854610c99908361189b565b60085533600160a060020a039081166000818152600560209081526040808320805473ffffffffffffffffffffffffffffffffffffffff191687871617905560048054600a5483517f23b872dd00000000000000000000000000000000000000000000000000000000815292830196909652948616602482015260448101889052905193909416936323b872dd9360648083019491928390030190829087803b158015610d4557600080fd5b505af1158015610d59573d6000803e3d6000fd5b505050506040513d6020811015610d6f57600080fd5b50511515610d7c57600080fd5b60085460048054600a546040805160e060020a6370a08231028152600160a060020a0392831694810194909452519116916370a082319160248083019260209291908290030181600087803b158015610dd457600080fd5b505af1158015610de8573d6000803e3d6000fd5b505050506040513d6020811015610dfe57600080fd5b505114610e0a57600080fd5b80600160a060020a031633600160a060020a03167f57593c23286b632d1ba413b24ecae252f34f6b81fdff1022dc7ac0d78cde56b7846040518082815260200191505060405180910390a35050565b600160a060020a0333811660009081526005602052604081205490918291161515610e8357600080fd5b30600160a060020a031633600160a060020a031614151515610ea457600080fd5b5050600160a060020a03338116600090815260056020908152604080832054600683528184208054908590559416808452600790925290912054610ee890836118ae565b600160a060020a038216600090815260076020526040902055600854610f0e90836118ae565b600855600160a060020a033381166000818152600560209081526040808320805473ffffffffffffffffffffffffffffffffffffffff19169055600a5481517fa9059cbb000000000000000000000000000000000000000000000000000000008152600481019590955260248501889052905194169363a9059cbb93604480820194918390030190829087803b158015610fa757600080fd5b505af1158015610fbb573d6000803e3d6000fd5b505050506040513d6020811015610fd157600080fd5b50511515610fde57600080fd5b60085460048054600a546040805160e060020a6370a08231028152600160a060020a0392831694810194909452519116916370a082319160248083019260209291908290030181600087803b15801561103657600080fd5b505af115801561104a573d6000803e3d6000fd5b505050506040513d602081101561106057600080fd5b50511461106c57600080fd5b80600160a060020a031633600160a060020a03167fccc924ef18d5fcabbf624302b6a02f9014c9b3371994eacc0cec2c107f2503e4846040518082815260200191505060405180910390a35b5090565b60015481565b30600160a060020a031633600160a060020a03161415156110e257600080fd5b8215156110ee57600192505b6000839055600182905560098190556004546040805185815260208101859052600160a060020a0390921682820152517f68259880819f96f54b67d672fefc666565de06099c91b57a689a42073ba090c99181900360600190a1505050565b60005481565b604080517f23b872dd000000000000000000000000000000000000000000000000000000008152600160a060020a038681166004830152308116602483015260448201869052915184928316916323b872dd9160648083019260209291908290030181600087803b1580156111c757600080fd5b505af11580156111db573d6000803e3d6000fd5b505050506040513d60208110156111f157600080fd5b505115156111fe57600080fd5b82600160a060020a031685600160a060020a03167fd65b48fd35864b3528d38e44760be5553248f89bf3ff6b06cca57817cc2650bf86856040518083815260200180602001828103825283818151815260200191508051906020019080838360005b83811015611278578181015183820152602001611260565b50505050905090810190601f1680156112a55780820380516001836020036101000a031916815260200191505b50935050505060405180910390a35050505050565b600a54600160a060020a031681565b60095481565b6000806000600460009054906101000a9004600160a060020a0316600160a060020a03166370a08231336040518263ffffffff167c01000000000000000000000000000000000000000000000000000000000281526004018082600160a060020a0316600160a060020a03168152602001915050602060405180830381600087803b15801561135d57600080fd5b505af1158015611371573d6000803e3d6000fd5b505050506040513d602081101561138757600080fd5b50511161139357600080fd5b30600160a060020a031633600160a060020a0316141515156113b457600080fd5b60028054859081106113c257fe5b60009182526020808320600160a060020a03331684526009600a90930201918201905260409091205490915060ff1615156001141561140057600080fd5b6008810180549061141490600183016118c0565b91506040805190810160405280841515815260200133600160a060020a0316815250816008018381548110151561144757fe5b600091825260208083208451920180549482015160ff199586169315159390931774ffffffffffffffffffffffffffffffffffffffff001916610100600160a060020a03948516021790553390911680835260098501825260409283902080549094166001908117909455928501600685015581518781528615159181019190915280820192909252517f86abfce99b7dd908bec0169288797f85049ec73cbe046ed9de818fab3a497ae0916060908290030190a15092915050565b600954600480546040805160e060020a6370a08231028152600160a060020a033381169482019490945290516000948594909316916370a0823191602480830192602092919082900301818887803b15801561155e57600080fd5b505af1158015611572573d6000803e3d6000fd5b505050506040513d602081101561158857600080fd5b5051101561159557600080fd5b30600160a060020a031633600160a060020a0316141515156115b657600080fd5b600a54600160a060020a03878116911614156115d157600080fd5b60028054906115e390600183016118e9565b91506002828154811015156115f457fe5b6000918252602091829020600a9190910201805473ffffffffffffffffffffffffffffffffffffffff1916600160a060020a03891617815560018101879055855190925061164a91600284019190870190611915565b508585846040518084600160a060020a0316600160a060020a03166c0100000000000000000000000002815260140183815260200182805190602001908083835b602083106116aa5780518252601f19909201916020918201910161168b565b51815160209384036101000a60001901801990921691161790526040805192909401829003822060078a01554260038a01819055600154603c020160048a015560058901805461ffff19169055600060068a018190558a8352600160a060020a038f16838301529382018d90526080606083018181528d51918401919091528c517f06d6b095e85f5218421975622a7aee84a98b32aa7d174b90088357014003b43399508b98508f97508e96508d95939450909260a0850192860191908190849084905b8381101561178657818101518382015260200161176e565b50505050905090810190601f1680156117b35780820380516001836020036101000a031916815260200191505b509550505050505060405180910390a16001820160035550949350505050565b6000806002868154811015156117e557fe5b90600052602060002090600a020190508484846040518084600160a060020a0316600160a060020a03166c0100000000000000000000000002815260140183815260200182805190602001908083835b602083106118545780518252601f199092019160209182019101611835565b5181516000196020949094036101000a9390930192831692191691909117905260405192018290039091206007870154149650505050505050949350505050565b60085481565b818101828110156118a857fe5b92915050565b6000828211156118ba57fe5b50900390565b8154818355818111156118e4576000838152602090206118e491810190830161198f565b505050565b8154818355818111156118e457600a0281600a0283600052602060002091820191016118e491906119c4565b828054600181600116156101000203166002900490600052602060002090601f016020900481019282601f1061195657805160ff1916838001178555611983565b82800160010185558215611983579182015b82811115611983578251825591602001919060010190611968565b506110b8929150611a45565b6119c191905b808211156110b857805474ffffffffffffffffffffffffffffffffffffffffff19168155600101611995565b90565b6119c191905b808211156110b857805473ffffffffffffffffffffffffffffffffffffffff19168155600060018201819055611a036002830182611a5f565b6000600383018190556004830181905560058301805461ffff191690556006830181905560078301819055611a3c906008840190611aa6565b50600a016119ca565b6119c191905b808211156110b85760008155600101611a4b565b50805460018160011615610100020316600290046000825580601f10611a855750611aa3565b601f016020900490600052602060002090810190611aa39190611a45565b50565b5080546000825590600052602060002090810190611aa3919061198f5600a165627a7a72305820f9b87020b7b337bbb12cb4558e8831cd77f4cea5e4339df01b768edeab5a2cc10029",
    "linkReferences": {}
  },
  "methodIdentifiers": {
    "changeVotingRules(uint256,uint256,uint256)": "6e676b69",
    "checkProposalCode(uint256,address,uint256,bytes)": "eceb2945",
    "clearDelegateAndUnlockTokens()": "645bd436",
    "countVotes(uint256)": "1840f0ca",
    "debatingPeriodInMinutes()": "69bd3436",
    "delegatedAmountsByDelegate(address)": "3fb3ec28",
    "delegatesByDelegator(address)": "064cc7a7",
    "executeProposal(uint256,bytes)": "237e9492",
    "hasVoted(uint256,address)": "43859632",
    "lockedDelegatingTokens(address)": "13f47f24",
    "minimumQuorum()": "8160f0b5",
    "newProposal(address,uint256,bytes,bytes)": "dbc45228",
    "numProposals()": "400e3949",
    "proposals(uint256)": "013cf08b",
    "receiveApproval(address,uint256,address,bytes)": "8f4ffcb1",
    "requiredSharesToBeBoardMember()": "b94fa03f",
    "setDelegateAndLockTokens(uint256,address)": "5fa7df6b",
    "sharesTokenAddress()": "27ebcf0e",
    "tokenLocker()": "a80bf3e6",
    "totalLockedTokens()": "f5c476f9",
    "vote(uint256,bool)": "c9d27afe"
  },
  "id": 16
}