{
  "abi": [
    {
      "constant": false,
      "inputs": [],
      "name": "renounceOwnership",
      "outputs": [],
      "payable": false,
      "stateMutability": "nonpayable",
      "type": "function"
    },
    {
      "constant": true,
      "inputs": [],
      "name": "owner",
      "outputs": [
        {
          "name": "",
          "type": "address"
        }
      ],
      "payable": false,
      "stateMutability": "view",
      "type": "function"
    },
    {
      "constant": false,
      "inputs": [
        {
          "name": "from",
          "type": "address"
        },
        {
          "name": "value",
          "type": "uint256"
        },
        {
          "name": "token",
          "type": "address"
        },
        {
          "name": "extraData",
          "type": "bytes"
        }
      ],
      "name": "receiveApproval",
      "outputs": [],
      "payable": false,
      "stateMutability": "nonpayable",
      "type": "function"
    },
    {
      "constant": false,
      "inputs": [
        {
          "name": "dest",
          "type": "address"
        },
        {
          "name": "calldata",
          "type": "bytes"
        }
      ],
      "name": "delegateProxyAssert",
      "outputs": [],
      "payable": false,
      "stateMutability": "nonpayable",
      "type": "function"
    },
    {
      "constant": false,
      "inputs": [
        {
          "name": "_newOwner",
          "type": "address"
        }
      ],
      "name": "transferOwnership",
      "outputs": [],
      "payable": false,
      "stateMutability": "nonpayable",
      "type": "function"
    },
    {
      "constant": false,
      "inputs": [
        {
          "name": "dest",
          "type": "address"
        },
        {
          "name": "calldata",
          "type": "bytes"
        }
      ],
      "name": "delegateProxy",
      "outputs": [
        {
          "name": "result",
          "type": "bool"
        }
      ],
      "payable": false,
      "stateMutability": "nonpayable",
      "type": "function"
    },
    {
      "inputs": [],
      "payable": false,
      "stateMutability": "nonpayable",
      "type": "constructor"
    },
    {
      "payable": true,
      "stateMutability": "payable",
      "type": "fallback"
    },
    {
      "anonymous": false,
      "inputs": [
        {
          "indexed": true,
          "name": "previousOwner",
          "type": "address"
        }
      ],
      "name": "OwnershipRenounced",
      "type": "event"
    },
    {
      "anonymous": false,
      "inputs": [
        {
          "indexed": true,
          "name": "previousOwner",
          "type": "address"
        },
        {
          "indexed": true,
          "name": "newOwner",
          "type": "address"
        }
      ],
      "name": "OwnershipTransferred",
      "type": "event"
    },
    {
      "anonymous": false,
      "inputs": [
        {
          "indexed": true,
          "name": "sender",
          "type": "address"
        },
        {
          "indexed": false,
          "name": "amount",
          "type": "uint256"
        }
      ],
      "name": "ReceivedEther",
      "type": "event"
    },
    {
      "anonymous": false,
      "inputs": [
        {
          "indexed": true,
          "name": "from",
          "type": "address"
        },
        {
          "indexed": false,
          "name": "value",
          "type": "uint256"
        },
        {
          "indexed": true,
          "name": "token",
          "type": "address"
        },
        {
          "indexed": false,
          "name": "extraData",
          "type": "bytes"
        }
      ],
      "name": "ReceivedTokens",
      "type": "event"
    }
  ],
  "bytecode": {
    "object": "0x608060405234801561001057600080fd5b5060008054600160a060020a033316600160a060020a031991821681179091161790556105d9806100426000396000f3006080604052600436106100775763ffffffff7c0100000000000000000000000000000000000000000000000000000000600035041663715018a681146100b85780638da5cb5b146100cf5780638f4ffcb114610100578063a018f2b214610170578063f2fde38b146101d7578063fc74dadd146101f8575b604080513481529051600160a060020a033316917fa419615bc8fda4c87663805ee2a3597a6d71c1d476911d9892f340d965bc7bf1919081900360200190a2005b3480156100c457600080fd5b506100cd610273565b005b3480156100db57600080fd5b506100e46102e3565b60408051600160a060020a039092168252519081900360200190f35b34801561010c57600080fd5b50604080516020601f6064356004818101359283018490048402850184019095528184526100cd94600160a060020a038135811695602480359660443590931695369560849492019181908401838280828437509497506102f29650505050505050565b34801561017c57600080fd5b5060408051602060046024803582810135601f81018590048502860185019096528585526100cd958335600160a060020a03169536956044949193909101919081908401838280828437509497506104599650505050505050565b3480156101e357600080fd5b506100cd600160a060020a0360043516610472565b34801561020457600080fd5b5060408051602060046024803582810135601f810185900485028601850190965285855261025f958335600160a060020a03169536956044949193909101919081908401838280828437509497506104999650505050505050565b604080519115158252519081900360200190f35b60005433600160a060020a0390811691161461028e57600080fd5b60008054604051600160a060020a03909116917ff8df31144d9c2f0f6b59d69b8b98abd5459d07f2742c4df920b25aae33c6482091a26000805473ffffffffffffffffffffffffffffffffffffffff19169055565b600054600160a060020a031681565b604080517f23b872dd000000000000000000000000000000000000000000000000000000008152600160a060020a038681166004830152308116602483015260448201869052915184928316916323b872dd9160648083019260209291908290030181600087803b15801561036657600080fd5b505af115801561037a573d6000803e3d6000fd5b505050506040513d602081101561039057600080fd5b5051151561039d57600080fd5b82600160a060020a031685600160a060020a03167fd65b48fd35864b3528d38e44760be5553248f89bf3ff6b06cca57817cc2650bf86856040518083815260200180602001828103825283818151815260200191508051906020019080838360005b838110156104175781810151838201526020016103ff565b50505050905090810190601f1680156104445780820380516001836020036101000a031916815260200191505b50935050505060405180910390a35050505050565b6104638282610499565b151561046e57600080fd5b5050565b60005433600160a060020a0390811691161461048d57600080fd5b61049681610530565b50565b6000805433600160a060020a039081169116146104b557600080fd5b82600160a060020a03168260405180828051906020019080838360005b838110156104ea5781810151838201526020016104d2565b50505050905090810190601f1680156105175780820380516001836020036101000a031916815260200191505b50915050600060405180830381855af495945050505050565b600160a060020a038116151561054557600080fd5b60008054604051600160a060020a03808516939216917f8be0079c531659141344cd1fd0a4f28419497f9722a3daafe3b4186f6b6457e091a36000805473ffffffffffffffffffffffffffffffffffffffff1916600160a060020a03929092169190911790555600a165627a7a72305820080394d37833b96540c6d6782c395f862d8e765aaf698ab4784debbe4e0601760029",
    "linkReferences": {}
  },
  "methodIdentifiers": {
    "delegateProxy(address,bytes)": "fc74dadd",
    "delegateProxyAssert(address,bytes)": "a018f2b2",
    "owner()": "8da5cb5b",
    "receiveApproval(address,uint256,address,bytes)": "8f4ffcb1",
    "renounceOwnership()": "715018a6",
    "transferOwnership(address)": "f2fde38b"
  },
  "id": 6
}