{
  "abi": [
    {
      "constant": true,
      "inputs": [],
      "name": "name",
      "outputs": [
        {
          "name": "",
          "type": "string"
        }
      ],
      "payable": false,
      "stateMutability": "view",
      "type": "function"
    },
    {
      "constant": true,
      "inputs": [],
      "name": "tokenTransferProxy",
      "outputs": [
        {
          "name": "",
          "type": "address"
        }
      ],
      "payable": false,
      "stateMutability": "view",
      "type": "function"
    },
    {
      "constant": true,
      "inputs": [
        {
          "name": "target",
          "type": "address"
        },
        {
          "name": "calldata",
          "type": "bytes"
        },
        {
          "name": "extradata",
          "type": "bytes"
        }
      ],
      "name": "staticCall",
      "outputs": [
        {
          "name": "result",
          "type": "bool"
        }
      ],
      "payable": false,
      "stateMutability": "view",
      "type": "function"
    },
    {
      "constant": false,
      "inputs": [
        {
          "name": "newMinimumMakerProtocolFee",
          "type": "uint256"
        }
      ],
      "name": "changeMinimumMakerProtocolFee",
      "outputs": [],
      "payable": false,
      "stateMutability": "nonpayable",
      "type": "function"
    },
    {
      "constant": false,
      "inputs": [
        {
          "name": "newMinimumTakerProtocolFee",
          "type": "uint256"
        }
      ],
      "name": "changeMinimumTakerProtocolFee",
      "outputs": [],
      "payable": false,
      "stateMutability": "nonpayable",
      "type": "function"
    },
    {
      "constant": true,
      "inputs": [
        {
          "name": "array",
          "type": "bytes"
        },
        {
          "name": "desired",
          "type": "bytes"
        },
        {
          "name": "mask",
          "type": "bytes"
        }
      ],
      "name": "guardedArrayReplace",
      "outputs": [
        {
          "name": "",
          "type": "bytes"
        }
      ],
      "payable": false,
      "stateMutability": "pure",
      "type": "function"
    },
    {
      "constant": true,
      "inputs": [],
      "name": "minimumTakerProtocolFee",
      "outputs": [
        {
          "name": "",
          "type": "uint256"
        }
      ],
      "payable": false,
      "stateMutability": "view",
      "type": "function"
    },
    {
      "constant": true,
      "inputs": [],
      "name": "codename",
      "outputs": [
        {
          "name": "",
          "type": "string"
        }
      ],
      "payable": false,
      "stateMutability": "view",
      "type": "function"
    },
    {
      "constant": true,
      "inputs": [
        {
          "name": "addr",
          "type": "address"
        }
      ],
      "name": "testCopyAddress",
      "outputs": [
        {
          "name": "",
          "type": "bytes"
        }
      ],
      "payable": false,
      "stateMutability": "pure",
      "type": "function"
    },
    {
      "constant": true,
      "inputs": [
        {
          "name": "arrToCopy",
          "type": "bytes"
        }
      ],
      "name": "testCopy",
      "outputs": [
        {
          "name": "",
          "type": "bytes"
        }
      ],
      "payable": false,
      "stateMutability": "pure",
      "type": "function"
    },
    {
      "constant": true,
      "inputs": [
        {
          "name": "addrs",
          "type": "address[7]"
        },
        {
          "name": "uints",
          "type": "uint256[9]"
        },
        {
          "name": "feeMethod",
          "type": "uint8"
        },
        {
          "name": "side",
          "type": "uint8"
        },
        {
          "name": "saleKind",
          "type": "uint8"
        },
        {
          "name": "howToCall",
          "type": "uint8"
        },
        {
          "name": "calldata",
          "type": "bytes"
        },
        {
          "name": "replacementPattern",
          "type": "bytes"
        },
        {
          "name": "staticExtradata",
          "type": "bytes"
        }
      ],
      "name": "calculateCurrentPrice_",
      "outputs": [
        {
          "name": "",
          "type": "uint256"
        }
      ],
      "payable": false,
      "stateMutability": "view",
      "type": "function"
    },
    {
      "constant": false,
      "inputs": [
        {
          "name": "newProtocolFeeRecipient",
          "type": "address"
        }
      ],
      "name": "changeProtocolFeeRecipient",
      "outputs": [],
      "payable": false,
      "stateMutability": "nonpayable",
      "type": "function"
    },
    {
      "constant": true,
      "inputs": [],
      "name": "version",
      "outputs": [
        {
          "name": "",
          "type": "string"
        }
      ],
      "payable": false,
      "stateMutability": "view",
      "type": "function"
    },
    {
      "constant": true,
      "inputs": [
        {
          "name": "buyCalldata",
          "type": "bytes"
        },
        {
          "name": "buyReplacementPattern",
          "type": "bytes"
        },
        {
          "name": "sellCalldata",
          "type": "bytes"
        },
        {
          "name": "sellReplacementPattern",
          "type": "bytes"
        }
      ],
      "name": "orderCalldataCanMatch",
      "outputs": [
        {
          "name": "",
          "type": "bool"
        }
      ],
      "payable": false,
      "stateMutability": "pure",
      "type": "function"
    },
    {
      "constant": true,
      "inputs": [
        {
          "name": "addrs",
          "type": "address[7]"
        },
        {
          "name": "uints",
          "type": "uint256[9]"
        },
        {
          "name": "feeMethod",
          "type": "uint8"
        },
        {
          "name": "side",
          "type": "uint8"
        },
        {
          "name": "saleKind",
          "type": "uint8"
        },
        {
          "name": "howToCall",
          "type": "uint8"
        },
        {
          "name": "calldata",
          "type": "bytes"
        },
        {
          "name": "replacementPattern",
          "type": "bytes"
        },
        {
          "name": "staticExtradata",
          "type": "bytes"
        },
        {
          "name": "v",
          "type": "uint8"
        },
        {
          "name": "r",
          "type": "bytes32"
        },
        {
          "name": "s",
          "type": "bytes32"
        }
      ],
      "name": "validateOrder_",
      "outputs": [
        {
          "name": "",
          "type": "bool"
        }
      ],
      "payable": false,
      "stateMutability": "view",
      "type": "function"
    },
    {
      "constant": true,
      "inputs": [
        {
          "name": "side",
          "type": "uint8"
        },
        {
          "name": "saleKind",
          "type": "uint8"
        },
        {
          "name": "basePrice",
          "type": "uint256"
        },
        {
          "name": "extra",
          "type": "uint256"
        },
        {
          "name": "listingTime",
          "type": "uint256"
        },
        {
          "name": "expirationTime",
          "type": "uint256"
        }
      ],
      "name": "calculateFinalPrice",
      "outputs": [
        {
          "name": "",
          "type": "uint256"
        }
      ],
      "payable": false,
      "stateMutability": "view",
      "type": "function"
    },
    {
      "constant": true,
      "inputs": [],
      "name": "protocolFeeRecipient",
      "outputs": [
        {
          "name": "",
          "type": "address"
        }
      ],
      "payable": false,
      "stateMutability": "view",
      "type": "function"
    },
    {
      "constant": false,
      "inputs": [],
      "name": "renounceOwnership",
      "outputs": [],
      "payable": false,
      "stateMutability": "nonpayable",
      "type": "function"
    },
    {
      "constant": true,
      "inputs": [
        {
          "name": "addrs",
          "type": "address[7]"
        },
        {
          "name": "uints",
          "type": "uint256[9]"
        },
        {
          "name": "feeMethod",
          "type": "uint8"
        },
        {
          "name": "side",
          "type": "uint8"
        },
        {
          "name": "saleKind",
          "type": "uint8"
        },
        {
          "name": "howToCall",
          "type": "uint8"
        },
        {
          "name": "calldata",
          "type": "bytes"
        },
        {
          "name": "replacementPattern",
          "type": "bytes"
        },
        {
          "name": "staticExtradata",
          "type": "bytes"
        }
      ],
      "name": "hashOrder_",
      "outputs": [
        {
          "name": "",
          "type": "bytes32"
        }
      ],
      "payable": false,
      "stateMutability": "pure",
      "type": "function"
    },
    {
      "constant": true,
      "inputs": [
        {
          "name": "addrs",
          "type": "address[14]"
        },
        {
          "name": "uints",
          "type": "uint256[18]"
        },
        {
          "name": "feeMethodsSidesKindsHowToCalls",
          "type": "uint8[8]"
        },
        {
          "name": "calldataBuy",
          "type": "bytes"
        },
        {
          "name": "calldataSell",
          "type": "bytes"
        },
        {
          "name": "replacementPatternBuy",
          "type": "bytes"
        },
        {
          "name": "replacementPatternSell",
          "type": "bytes"
        },
        {
          "name": "staticExtradataBuy",
          "type": "bytes"
        },
        {
          "name": "staticExtradataSell",
          "type": "bytes"
        }
      ],
      "name": "ordersCanMatch_",
      "outputs": [
        {
          "name": "",
          "type": "bool"
        }
      ],
      "payable": false,
      "stateMutability": "view",
      "type": "function"
    },
    {
      "constant": false,
      "inputs": [
        {
          "name": "addrs",
          "type": "address[7]"
        },
        {
          "name": "uints",
          "type": "uint256[9]"
        },
        {
          "name": "feeMethod",
          "type": "uint8"
        },
        {
          "name": "side",
          "type": "uint8"
        },
        {
          "name": "saleKind",
          "type": "uint8"
        },
        {
          "name": "howToCall",
          "type": "uint8"
        },
        {
          "name": "calldata",
          "type": "bytes"
        },
        {
          "name": "replacementPattern",
          "type": "bytes"
        },
        {
          "name": "staticExtradata",
          "type": "bytes"
        },
        {
          "name": "orderbookInclusionDesired",
          "type": "bool"
        }
      ],
      "name": "approveOrder_",
      "outputs": [],
      "payable": false,
      "stateMutability": "nonpayable",
      "type": "function"
    },
    {
      "constant": true,
      "inputs": [],
      "name": "registry",
      "outputs": [
        {
          "name": "",
          "type": "address"
        }
      ],
      "payable": false,
      "stateMutability": "view",
      "type": "function"
    },
    {
      "constant": true,
      "inputs": [],
      "name": "minimumMakerProtocolFee",
      "outputs": [
        {
          "name": "",
          "type": "uint256"
        }
      ],
      "payable": false,
      "stateMutability": "view",
      "type": "function"
    },
    {
      "constant": true,
      "inputs": [
        {
          "name": "addrs",
          "type": "address[7]"
        },
        {
          "name": "uints",
          "type": "uint256[9]"
        },
        {
          "name": "feeMethod",
          "type": "uint8"
        },
        {
          "name": "side",
          "type": "uint8"
        },
        {
          "name": "saleKind",
          "type": "uint8"
        },
        {
          "name": "howToCall",
          "type": "uint8"
        },
        {
          "name": "calldata",
          "type": "bytes"
        },
        {
          "name": "replacementPattern",
          "type": "bytes"
        },
        {
          "name": "staticExtradata",
          "type": "bytes"
        }
      ],
      "name": "hashToSign_",
      "outputs": [
        {
          "name": "",
          "type": "bytes32"
        }
      ],
      "payable": false,
      "stateMutability": "pure",
      "type": "function"
    },
    {
      "constant": true,
      "inputs": [
        {
          "name": "",
          "type": "bytes32"
        }
      ],
      "name": "cancelledOrFinalized",
      "outputs": [
        {
          "name": "",
          "type": "bool"
        }
      ],
      "payable": false,
      "stateMutability": "view",
      "type": "function"
    },
    {
      "constant": true,
      "inputs": [],
      "name": "owner",
      "outputs": [
        {
          "name": "",
          "type": "address"
        }
      ],
      "payable": false,
      "stateMutability": "view",
      "type": "function"
    },
    {
      "constant": true,
      "inputs": [],
      "name": "exchangeToken",
      "outputs": [
        {
          "name": "",
          "type": "address"
        }
      ],
      "payable": false,
      "stateMutability": "view",
      "type": "function"
    },
    {
      "constant": false,
      "inputs": [
        {
          "name": "addrs",
          "type": "address[7]"
        },
        {
          "name": "uints",
          "type": "uint256[9]"
        },
        {
          "name": "feeMethod",
          "type": "uint8"
        },
        {
          "name": "side",
          "type": "uint8"
        },
        {
          "name": "saleKind",
          "type": "uint8"
        },
        {
          "name": "howToCall",
          "type": "uint8"
        },
        {
          "name": "calldata",
          "type": "bytes"
        },
        {
          "name": "replacementPattern",
          "type": "bytes"
        },
        {
          "name": "staticExtradata",
          "type": "bytes"
        },
        {
          "name": "v",
          "type": "uint8"
        },
        {
          "name": "r",
          "type": "bytes32"
        },
        {
          "name": "s",
          "type": "bytes32"
        }
      ],
      "name": "cancelOrder_",
      "outputs": [],
      "payable": false,
      "stateMutability": "nonpayable",
      "type": "function"
    },
    {
      "constant": false,
      "inputs": [
        {
          "name": "addrs",
          "type": "address[14]"
        },
        {
          "name": "uints",
          "type": "uint256[18]"
        },
        {
          "name": "feeMethodsSidesKindsHowToCalls",
          "type": "uint8[8]"
        },
        {
          "name": "calldataBuy",
          "type": "bytes"
        },
        {
          "name": "calldataSell",
          "type": "bytes"
        },
        {
          "name": "replacementPatternBuy",
          "type": "bytes"
        },
        {
          "name": "replacementPatternSell",
          "type": "bytes"
        },
        {
          "name": "staticExtradataBuy",
          "type": "bytes"
        },
        {
          "name": "staticExtradataSell",
          "type": "bytes"
        },
        {
          "name": "vs",
          "type": "uint8[2]"
        },
        {
          "name": "rssMetadata",
          "type": "bytes32[5]"
        }
      ],
      "name": "atomicMatch_",
      "outputs": [],
      "payable": true,
      "stateMutability": "payable",
      "type": "function"
    },
    {
      "constant": true,
      "inputs": [
        {
          "name": "addrs",
          "type": "address[7]"
        },
        {
          "name": "uints",
          "type": "uint256[9]"
        },
        {
          "name": "feeMethod",
          "type": "uint8"
        },
        {
          "name": "side",
          "type": "uint8"
        },
        {
          "name": "saleKind",
          "type": "uint8"
        },
        {
          "name": "howToCall",
          "type": "uint8"
        },
        {
          "name": "calldata",
          "type": "bytes"
        },
        {
          "name": "replacementPattern",
          "type": "bytes"
        },
        {
          "name": "staticExtradata",
          "type": "bytes"
        }
      ],
      "name": "validateOrderParameters_",
      "outputs": [
        {
          "name": "",
          "type": "bool"
        }
      ],
      "payable": false,
      "stateMutability": "view",
      "type": "function"
    },
    {
      "constant": true,
      "inputs": [],
      "name": "INVERSE_BASIS_POINT",
      "outputs": [
        {
          "name": "",
          "type": "uint256"
        }
      ],
      "payable": false,
      "stateMutability": "view",
      "type": "function"
    },
    {
      "constant": true,
      "inputs": [
        {
          "name": "addrs",
          "type": "address[14]"
        },
        {
          "name": "uints",
          "type": "uint256[18]"
        },
        {
          "name": "feeMethodsSidesKindsHowToCalls",
          "type": "uint8[8]"
        },
        {
          "name": "calldataBuy",
          "type": "bytes"
        },
        {
          "name": "calldataSell",
          "type": "bytes"
        },
        {
          "name": "replacementPatternBuy",
          "type": "bytes"
        },
        {
          "name": "replacementPatternSell",
          "type": "bytes"
        },
        {
          "name": "staticExtradataBuy",
          "type": "bytes"
        },
        {
          "name": "staticExtradataSell",
          "type": "bytes"
        }
      ],
      "name": "calculateMatchPrice_",
      "outputs": [
        {
          "name": "",
          "type": "uint256"
        }
      ],
      "payable": false,
      "stateMutability": "view",
      "type": "function"
    },
    {
      "constant": true,
      "inputs": [
        {
          "name": "",
          "type": "bytes32"
        }
      ],
      "name": "approvedOrders",
      "outputs": [
        {
          "name": "",
          "type": "bool"
        }
      ],
      "payable": false,
      "stateMutability": "view",
      "type": "function"
    },
    {
      "constant": false,
      "inputs": [
        {
          "name": "_newOwner",
          "type": "address"
        }
      ],
      "name": "transferOwnership",
      "outputs": [],
      "payable": false,
      "stateMutability": "nonpayable",
      "type": "function"
    },
    {
      "inputs": [
        {
          "name": "registryAddress",
          "type": "address"
        },
        {
          "name": "tokenTransferProxyAddress",
          "type": "address"
        },
        {
          "name": "tokenAddress",
          "type": "address"
        },
        {
          "name": "protocolFeeAddress",
          "type": "address"
        }
      ],
      "payable": false,
      "stateMutability": "nonpayable",
      "type": "constructor"
    },
    {
      "anonymous": false,
      "inputs": [
        {
          "indexed": true,
          "name": "hash",
          "type": "bytes32"
        },
        {
          "indexed": false,
          "name": "exchange",
          "type": "address"
        },
        {
          "indexed": true,
          "name": "maker",
          "type": "address"
        },
        {
          "indexed": false,
          "name": "taker",
          "type": "address"
        },
        {
          "indexed": false,
          "name": "makerRelayerFee",
          "type": "uint256"
        },
        {
          "indexed": false,
          "name": "takerRelayerFee",
          "type": "uint256"
        },
        {
          "indexed": false,
          "name": "makerProtocolFee",
          "type": "uint256"
        },
        {
          "indexed": false,
          "name": "takerProtocolFee",
          "type": "uint256"
        },
        {
          "indexed": true,
          "name": "feeRecipient",
          "type": "address"
        },
        {
          "indexed": false,
          "name": "feeMethod",
          "type": "uint8"
        },
        {
          "indexed": false,
          "name": "side",
          "type": "uint8"
        },
        {
          "indexed": false,
          "name": "saleKind",
          "type": "uint8"
        },
        {
          "indexed": false,
          "name": "target",
          "type": "address"
        }
      ],
      "name": "OrderApprovedPartOne",
      "type": "event"
    },
    {
      "anonymous": false,
      "inputs": [
        {
          "indexed": true,
          "name": "hash",
          "type": "bytes32"
        },
        {
          "indexed": false,
          "name": "howToCall",
          "type": "uint8"
        },
        {
          "indexed": false,
          "name": "calldata",
          "type": "bytes"
        },
        {
          "indexed": false,
          "name": "replacementPattern",
          "type": "bytes"
        },
        {
          "indexed": false,
          "name": "staticTarget",
          "type": "address"
        },
        {
          "indexed": false,
          "name": "staticExtradata",
          "type": "bytes"
        },
        {
          "indexed": false,
          "name": "paymentToken",
          "type": "address"
        },
        {
          "indexed": false,
          "name": "basePrice",
          "type": "uint256"
        },
        {
          "indexed": false,
          "name": "extra",
          "type": "uint256"
        },
        {
          "indexed": false,
          "name": "listingTime",
          "type": "uint256"
        },
        {
          "indexed": false,
          "name": "expirationTime",
          "type": "uint256"
        },
        {
          "indexed": false,
          "name": "salt",
          "type": "uint256"
        },
        {
          "indexed": false,
          "name": "orderbookInclusionDesired",
          "type": "bool"
        }
      ],
      "name": "OrderApprovedPartTwo",
      "type": "event"
    },
    {
      "anonymous": false,
      "inputs": [
        {
          "indexed": true,
          "name": "hash",
          "type": "bytes32"
        }
      ],
      "name": "OrderCancelled",
      "type": "event"
    },
    {
      "anonymous": false,
      "inputs": [
        {
          "indexed": false,
          "name": "buyHash",
          "type": "bytes32"
        },
        {
          "indexed": false,
          "name": "sellHash",
          "type": "bytes32"
        },
        {
          "indexed": true,
          "name": "maker",
          "type": "address"
        },
        {
          "indexed": true,
          "name": "taker",
          "type": "address"
        },
        {
          "indexed": false,
          "name": "price",
          "type": "uint256"
        },
        {
          "indexed": true,
          "name": "metadata",
          "type": "bytes32"
        }
      ],
      "name": "OrdersMatched",
      "type": "event"
    },
    {
      "anonymous": false,
      "inputs": [
        {
          "indexed": true,
          "name": "previousOwner",
          "type": "address"
        }
      ],
      "name": "OwnershipRenounced",
      "type": "event"
    },
    {
      "anonymous": false,
      "inputs": [
        {
          "indexed": true,
          "name": "previousOwner",
          "type": "address"
        },
        {
          "indexed": true,
          "name": "newOwner",
          "type": "address"
        }
      ],
      "name": "OwnershipTransferred",
      "type": "event"
    }
  ],
  "bytecode": {
    "object": "0x60806040526000805460ff19168155600681905560075534801561002257600080fd5b50604051608080614dcb83398101604090815281516020830151918301516060909301516000805460028054600160a060020a03958616600160a060020a0319918216179091556003805496861696821696909617909555600180549685169686169690961790955560088054928416929094169190911790925533166101000261010060a860020a031992831681179092169091179055614d02806100c96000396000f3006080604052600436106101925763ffffffff60e060020a60003504166306fdde0381146101975780630eefdbad1461022157806310796a471461025257806314350c241461030b5780631a6b13e214610325578063239e83df1461033d57806328a8ee681461041257806331e63199146104395780633464af6a1461044e5780633e1e292a1461046f5780633f67ee0d146104c8578063514f03301461060d57806354fd4d501461062e578063562b2ebc1461064357806360bef33a1461075657806363d36c0b146108aa57806364df049e146108d7578063715018a6146108ec57806371d02b381461090157806372593b4c14610a465780637966686814610c4d5780637b10399914610d965780637ccefc5214610dab5780637d76698114610dc05780638076f00514610f055780638da5cb5b14610f1d578063a25eb5d914610f32578063a8a41c7014610f47578063ab834bab1461109b578063ca595b9a146112de578063cae6047f14611423578063d537e13114611438578063e57d4adb1461163f578063f2fde38b14611657575b600080fd5b3480156101a357600080fd5b506101ac611678565b6040805160208082528351818301528351919283929083019185019080838360005b838110156101e65781810151838201526020016101ce565b50505050905090810190601f1680156102135780820380516001836020036101000a031916815260200191505b509250505060405180910390f35b34801561022d57600080fd5b506102366116af565b60408051600160a060020a039092168252519081900360200190f35b34801561025e57600080fd5b5060408051602060046024803582810135601f81018590048502860185019096528585526102f7958335600160a060020a031695369560449491939091019190819084018382808284375050604080516020601f89358b018035918201839004830284018301909452808352979a9998810197919650918201945092508291508401838280828437509497506116be9650505050505050565b604080519115158252519081900360200190f35b34801561031757600080fd5b5061032360043561172d565b005b34801561033157600080fd5b50610323600435611752565b34801561034957600080fd5b506040805160206004803580820135601f81018490048402850184019095528484526101ac94369492936024939284019190819084018382808284375050604080516020601f89358b018035918201839004830284018301909452808352979a99988101979196509182019450925082915084018382808284375050604080516020601f89358b018035918201839004830284018301909452808352979a9998810197919650918201945092508291508401838280828437509497506117779650505050505050565b34801561041e57600080fd5b5061042761178e565b60408051918252519081900360200190f35b34801561044557600080fd5b506101ac611794565b34801561045a57600080fd5b506101ac600160a060020a03600435166117cb565b34801561047b57600080fd5b506040805160206004803580820135601f81018490048402850184019095528484526101ac94369492936024939284019190819084018382808284375094975061180b9650505050505050565b3480156104d457600080fd5b506040805160e081810190925261042791369160049160e49190839060079083908390808284375050604080516101208181019092529497969581810195945092506009915083908390808284375050604080516020601f60808901358a0180359182018390048302840183018552818452979a60ff8a3581169b848c013582169b9687013582169a6060880135909216995091975090955060a090940193820191819084018382808284375050604080516020601f89358b018035918201839004830284018301909452808352979a99988101979196509182019450925082915084018382808284375050604080516020601f89358b018035918201839004830284018301909452808352979a9998810197919650918201945092508291508401838280828437509497506118519650505050505050565b34801561061957600080fd5b50610323600160a060020a036004351661199f565b34801561063a57600080fd5b506101ac6119ee565b34801561064f57600080fd5b506040805160206004803580820135601f81018490048402850184019095528484526102f794369492936024939284019190819084018382808284375050604080516020601f89358b018035918201839004830284018301909452808352979a99988101979196509182019450925082915084018382808284375050604080516020601f89358b018035918201839004830284018301909452808352979a99988101979196509182019450925082915084018382808284375050604080516020601f89358b018035918201839004830284018301909452808352979a999881019791965091820194509250829150840183828082843750949750611a259650505050505050565b34801561076257600080fd5b506040805160e08181019092526102f791369160049160e49190839060079083908390808284375050604080516101208181019092529497969581810195945092506009915083908390808284375050604080516020601f60808901358a0180359182018390048302840183018552818452979a60ff8a3581169b848c013582169b9687013582169a6060880135909216995091975090955060a090940193820191819084018382808284375050604080516020601f89358b018035918201839004830284018301909452808352979a99988101979196509182019450925082915084018382808284375050604080516020601f89358b018035918201839004830284018301909452808352979a9998810197919650918201945092508291508401838280828437509497505050833560ff1694505050602082013591604001359050611a63565b3480156108b657600080fd5b5061042760ff6004358116906024351660443560643560843560a435611c52565b3480156108e357600080fd5b50610236611c6d565b3480156108f857600080fd5b50610323611c7c565b34801561090d57600080fd5b506040805160e081810190925261042791369160049160e49190839060079083908390808284375050604080516101208181019092529497969581810195945092506009915083908390808284375050604080516020601f60808901358a0180359182018390048302840183018552818452979a60ff8a3581169b848c013582169b9687013582169a6060880135909216995091975090955060a090940193820191819084018382808284375050604080516020601f89358b018035918201839004830284018301909452808352979a99988101979196509182019450925082915084018382808284375050604080516020601f89358b018035918201839004830284018301909452808352979a999881019791965091820194509250829150840183828082843750949750611cf69650505050505050565b348015610a5257600080fd5b50604080516101c08181019092526102f79136916004916101c491908390600e9083908390808284375050604080516102408181019092529497969581810195945092506012915083908390808284375050604080516101008181019092529497969581810195945092506008915083908390808284375050604080516020601f88358a0180359182018390048302840183019094528083529699989781019691955091820193509150819084018382808284375050604080516020601f89358b018035918201839004830284018301909452808352979a99988101979196509182019450925082915084018382808284375050604080516020601f89358b018035918201839004830284018301909452808352979a99988101979196509182019450925082915084018382808284375050604080516020601f89358b018035918201839004830284018301909452808352979a99988101979196509182019450925082915084018382808284375050604080516020601f89358b018035918201839004830284018301909452808352979a99988101979196509182019450925082915084018382808284375050604080516020601f89358b018035918201839004830284018301909452808352979a999881019791965091820194509250829150840183828082843750949750611e369650505050505050565b348015610c5957600080fd5b506040805160e081810190925261032391369160049160e49190839060079083908390808284375050604080516101208181019092529497969581810195945092506009915083908390808284375050604080516020601f60808901358a0180359182018390048302840183018552818452979a60ff8a3581169b848c013582169b9687013582169a6060880135909216995091975090955060a090940193820191819084018382808284375050604080516020601f89358b018035918201839004830284018301909452808352979a99988101979196509182019450925082915084018382808284375050604080516020601f89358b018035918201839004830284018301909452808352979a999881019791965091820194509250829150840183828082843750949750505050913515159250612222915050565b348015610da257600080fd5b50610236612377565b348015610db757600080fd5b50610427612386565b348015610dcc57600080fd5b506040805160e081810190925261042791369160049160e49190839060079083908390808284375050604080516101208181019092529497969581810195945092506009915083908390808284375050604080516020601f60808901358a0180359182018390048302840183018552818452979a60ff8a3581169b848c013582169b9687013582169a6060880135909216995091975090955060a090940193820191819084018382808284375050604080516020601f89358b018035918201839004830284018301909452808352979a99988101979196509182019450925082915084018382808284375050604080516020601f89358b018035918201839004830284018301909452808352979a99988101979196509182019450925082915084018382808284375094975061238c9650505050505050565b348015610f1157600080fd5b506102f76004356124cc565b348015610f2957600080fd5b506102366124e1565b348015610f3e57600080fd5b506102366124f5565b348015610f5357600080fd5b506040805160e081810190925261032391369160049160e49190839060079083908390808284375050604080516101208181019092529497969581810195945092506009915083908390808284375050604080516020601f60808901358a0180359182018390048302840183018552818452979a60ff8a3581169b848c013582169b9687013582169a6060880135909216995091975090955060a090940193820191819084018382808284375050604080516020601f89358b018035918201839004830284018301909452808352979a99988101979196509182019450925082915084018382808284375050604080516020601f89358b018035918201839004830284018301909452808352979a9998810197919650918201945092508291508401838280828437509497505050833560ff1694505050602082013591604001359050612504565b604080516101c08181019092526103239136916004916101c491908390600e9083908390808284375050604080516102408181019092529497969581810195945092506012915083908390808284375050604080516101008181019092529497969581810195945092506008915083908390808284375050604080516020601f88358a0180359182018390048302840183019094528083529699989781019691955091820193509150819084018382808284375050604080516020601f89358b018035918201839004830284018301909452808352979a99988101979196509182019450925082915084018382808284375050604080516020601f89358b018035918201839004830284018301909452808352979a99988101979196509182019450925082915084018382808284375050604080516020601f89358b018035918201839004830284018301909452808352979a99988101979196509182019450925082915084018382808284375050604080516020601f89358b018035918201839004830284018301909452808352979a99988101979196509182019450925082915084018382808284375050604080516020601f89358b018035918201839004830284018301909452808352979a999881019791965091820194509250829150840183828082843750506040805180820182529598979681810196955093506002925084915083908082843750506040805160a0818101909252949796958181019594509250600591508390839080828437509396506126da95505050505050565b3480156112ea57600080fd5b506040805160e08181019092526102f791369160049160e49190839060079083908390808284375050604080516101208181019092529497969581810195945092506009915083908390808284375050604080516020601f60808901358a0180359182018390048302840183018552818452979a60ff8a3581169b848c013582169b9687013582169a6060880135909216995091975090955060a090940193820191819084018382808284375050604080516020601f89358b018035918201839004830284018301909452808352979a99988101979196509182019450925082915084018382808284375050604080516020601f89358b018035918201839004830284018301909452808352979a999881019791965091820194509250829150840183828082843750949750612af09650505050505050565b34801561142f57600080fd5b50610427612c48565b34801561144457600080fd5b50604080516101c08181019092526104279136916004916101c491908390600e9083908390808284375050604080516102408181019092529497969581810195945092506012915083908390808284375050604080516101008181019092529497969581810195945092506008915083908390808284375050604080516020601f88358a0180359182018390048302840183019094528083529699989781019691955091820193509150819084018382808284375050604080516020601f89358b018035918201839004830284018301909452808352979a99988101979196509182019450925082915084018382808284375050604080516020601f89358b018035918201839004830284018301909452808352979a99988101979196509182019450925082915084018382808284375050604080516020601f89358b018035918201839004830284018301909452808352979a99988101979196509182019450925082915084018382808284375050604080516020601f89358b018035918201839004830284018301909452808352979a99988101979196509182019450925082915084018382808284375050604080516020601f89358b018035918201839004830284018301909452808352979a999881019791965091820194509250829150840183828082843750949750612c4e9650505050505050565b34801561164b57600080fd5b506102f760043561302a565b34801561166357600080fd5b50610323600160a060020a036004351661303f565b60408051808201909152601781527f50726f6a6563742057797665726e2045786368616e6765000000000000000000602082015281565b600354600160a060020a031681565b60006060600083518551016040519080825280601f01601f1916602001820160405280156116f6578160200160208202803883390190505b5091505060208101611708818561306b565b9050611714818661306b565b506000604051835160208501895afa9695505050505050565b60005433600160a060020a03908116610100909204161461174d57600080fd5b600655565b60005433600160a060020a03908116610100909204161461177257600080fd5b600755565b60606117848484846130b1565b50825b9392505050565b60075481565b60408051808201909152600c81527f4c616d62746f6e20576f726d0000000000000000000000000000000000000000602082015281565b6040805160148082528183019092526060918291600091602082016102808038833901905050915050602081016118028185613238565b50909392505050565b606080600083516040519080825280601f01601f19166020018201604052801561183f578160200160208202803883390190505b5091505060208101611802818561306b565b604080516102e0810182528a51600160a060020a0390811682526020808d01518216818401528c8401518216838501528b51606080850191909152908c01516080840152928b015160a08301528a83015160c0830152918b015190911660e08201526000906119919061010081018a60018111156118cb57fe5b81526020018960018111156118dc57fe5b81526020018860018111156118ed57fe5b815260808d0151600160a060020a0316602082015260400187600181111561191157fe5b8152602081018790526040810186905260a0808e0151600160a060020a0316606083015260808201869052018c600660209081029190910151600160a060020a031682526080808e01519183019190915260a0808e0151604084015260c08e0151606084015260e08e0151918301919091526101008d0151910152613258565b9a9950505050505050505050565b60005433600160a060020a0390811661010090920416146119bf57600080fd5b6008805473ffffffffffffffffffffffffffffffffffffffff1916600160a060020a0392909216919091179055565b60408051808201909152600381527f322e320000000000000000000000000000000000000000000000000000000000602082015281565b60008084511115611a3b57611a3b8584866130b1565b600082511115611a5057611a508386846130b1565b611a5a858461328e565b95945050505050565b6000611a6d614c12565b604080516102e08101909152808f600060209081029190910151600160a060020a03168252018f600160209081029190910151600160a060020a03168252018f600260209081029190910151600160a060020a03168252018e6000602090810291909101518252018e6001602090810291909101518252018e6002602090810291909101518252018e6003602090810291909101518252018f60036020020151600160a060020a031681526020018d6001811115611b2757fe5b81526020018c6001811115611b3857fe5b81526020018b6001811115611b4957fe5b81526020018f60046020020151600160a060020a031681526020018a6001811115611b7057fe5b8152602081018a9052604081018990526060018f60056020020151600160a060020a031681526020018781526020018f6006600781101515611bae57fe5b60209081029190910151600160a060020a03168252018e6004602090810291909101518252018e6005602090810291909101518252018e6006602090810291909101518252018e6007602090810291909101518252018e6008602002015190529050611c40611c1c826132f2565b6040805160608101825260ff8916815260208101889052908101869052839061333d565b9e9d5050505050505050505050505050565b6000611c62878787878787613432565b979650505050505050565b600854600160a060020a031681565b60005433600160a060020a039081166101009092041614611c9c57600080fd5b60008054604051610100909104600160a060020a0316917ff8df31144d9c2f0f6b59d69b8b98abd5459d07f2742c4df920b25aae33c6482091a26000805474ffffffffffffffffffffffffffffffffffffffff0019169055565b604080516102e0810182528a51600160a060020a0390811682526020808d01518216818401528c8401518216838501528b51606080850191909152908c01516080840152928b015160a08301528a83015160c0830152918b015190911660e08201526000906119919061010081018a6001811115611d7057fe5b8152602001896001811115611d8157fe5b8152602001886001811115611d9257fe5b815260808d0151600160a060020a03166020820152604001876001811115611db657fe5b8152602081018790526040810186905260a0808e0151600160a060020a0316606083015260808201869052018c600660209081029190910151600160a060020a031682526080808e01519183019190915260a0808e0151604084015260c08e0151606084015260e08e0151918301919091526101008d01519101526134c5565b6000611e40614c12565b611e48614c12565b604080516102e08101909152808d600060209081029190910151600160a060020a03168252018d600160209081029190910151600160a060020a03168252018d600260209081029190910151600160a060020a03168252018c6000602090810291909101518252018c6001602090810291909101518252018c6002602090810291909101518252018c6003602090810291909101518252018d600360209081029190910151600160a060020a03168252018b6000602002015160ff166001811115611f0f57fe5b6001811115611f1a57fe5b81526020018b6001602002015160ff166001811115611f3557fe5b6001811115611f4057fe5b81526020018b6002602002015160ff166001811115611f5b57fe5b6001811115611f6657fe5b815260808e0151600160a060020a0316602082015260608c015160409091019060ff166001811115611f9457fe5b6001811115611f9f57fe5b8152602081018b90526040810189905260a0808f0151600160a060020a0316606083015260808201889052018d600660209081029190910151600160a060020a03168252018c6004602090810291909101518252018c6005602090810291909101518252018c6006602090810291909101518252018c6007602090810291909101518252018c600860200201519052604080516102e08101909152909250808d600760209081029190910151600160a060020a03168252018d600860209081029190910151600160a060020a03168252018d600960209081029190910151600160a060020a03168252018c6009602090810291909101518252018c600a602090810291909101518252018c600b602090810291909101518252018c600c602090810291909101518252018d600a60209081029190910151600160a060020a03168252018b6004602002015160ff1660018111156120f857fe5b600181111561210357fe5b81526020018b6005602002015160ff16600181111561211e57fe5b600181111561212957fe5b81526020018b6006602002015160ff16600181111561214457fe5b600181111561214f57fe5b81526101608e0151600160a060020a0316602082015260e08c015160409091019060ff16600181111561217e57fe5b600181111561218957fe5b8152602081018a9052604081018890526101808e0151600160a060020a031660608201526080810186905260a0018d600d60209081029190910151600160a060020a031682526101a08e0151908201526101c08d015160408201526101e08d015160608201526102008d015160808201526102208d015160a090910152905061221282826136b4565b9c9b505050505050505050505050565b61222a614c12565b604080516102e0810182528c51600160a060020a0390811682526020808f01518216818401528e8401518216838501528d51606080850191909152908e01516080840152928d015160a08301528c83015160c0830152918d015190911660e082015261010081018a600181111561229d57fe5b81526020018960018111156122ae57fe5b81526020018860018111156122bf57fe5b815260808d0151600160a060020a031660208201526040018760018111156122e357fe5b8152602081018790526040810186905260a0808e0151600160a060020a0316606083015260808201869052018c600660209081029190910151600160a060020a031682526080808e01519183019190915260a0808e0151604084015260c08e0151606084015260e08e0151918301919091526101008d0151910152905061236a818361388e565b5050505050505050505050565b600254600160a060020a031681565b60065481565b604080516102e0810182528a51600160a060020a0390811682526020808d01518216818401528c8401518216838501528b51606080850191909152908c01516080840152928b015160a08301528a83015160c0830152918b015190911660e08201526000906119919061010081018a600181111561240657fe5b815260200189600181111561241757fe5b815260200188600181111561242857fe5b815260808d0151600160a060020a0316602082015260400187600181111561244c57fe5b8152602081018790526040810186905260a0808e0151600160a060020a0316606083015260808201869052018c600660209081029190910151600160a060020a031682526080808e01519183019190915260a0808e0151604084015260c08e0151606084015260e08e0151918301919091526101008d01519101526132f2565b60046020526000908152604090205460ff1681565b6000546101009004600160a060020a031681565b600154600160a060020a031681565b604080516102e081019091526126cc90808e600060209081029190910151600160a060020a03168252018e600160209081029190910151600160a060020a03168252018e600260209081029190910151600160a060020a03168252018d6000602090810291909101518252018d6001602090810291909101518252018d6002602090810291909101518252018d6003602090810291909101518252018e60036020020151600160a060020a031681526020018c60018111156125c257fe5b81526020018b60018111156125d357fe5b81526020018a60018111156125e457fe5b815260808f0151600160a060020a0316602082015260400189600181111561260857fe5b815260208101899052604081018890526060018e60056020020151600160a060020a031681526020018681526020018e600660078110151561264657fe5b60209081029190910151600160a060020a03168252018d6004602090810291909101518252018d6005602090810291909101518252018d6006602090810291909101518252018d6007602090810291909101518252018d6008602090810291909101519091526040805160608101825260ff881681529182018690528101849052613c5c565b505050505050505050505050565b604080516102e0810182528c51600160a060020a0390811682526020808f01518216818401528e8401518216838501528d51606080850191909152908e01516080840152928d015160a08301528c83015160c0830152918d015190911660e0820152895161236a919061010082019060ff16600181111561275757fe5b600181111561276257fe5b81526020018b6001602002015160ff16600181111561277d57fe5b600181111561278857fe5b81526020018b6002602002015160ff1660018111156127a357fe5b60018111156127ae57fe5b815260808e0151600160a060020a0316602082015260608c015160409091019060ff1660018111156127dc57fe5b60018111156127e757fe5b8152602081018b90526040810189905260a0808f0151600160a060020a0316606083015260808201889052018d600660209081029190910151600160a060020a03168252018c6004602090810291909101518252018c6005602090810291909101518252018c6006602090810291909101518252018c6007602090810291909101518252018c6008602002015190526040805160608101909152808560006020908102919091015160ff168252018460006020908102919091015182520184600160200201519052604080516102e08101909152808f600760209081029190910151600160a060020a03168252018f600860209081029190910151600160a060020a03168252018f600960209081029190910151600160a060020a03168252018e6009602090810291909101518252018e600a602090810291909101518252018e600b602090810291909101518252018e600c602090810291909101518252018f600a60209081029190910151600160a060020a03168252018d6004602002015160ff16600181111561297657fe5b600181111561298157fe5b81526020018d6005602002015160ff16600181111561299c57fe5b60018111156129a757fe5b81526020018d6006602002015160ff1660018111156129c257fe5b60018111156129cd57fe5b81526020018f600b60209081029190910151600160a060020a03168252018d6007602002015160ff166001811115612a0157fe5b6001811115612a0c57fe5b8152602081018c9052604081018a90526060018f600c6020020151600160a060020a031681526020018781526020018f600d600e81101515612a4a57fe5b60209081029190910151600160a060020a03168252018e600d602090810291909101518252018e600e602090810291909101518252018e600f602090810291909101518252018e6010602090810291909101518252018e6011602002015190526040805160608101909152808760016020908102919091015160ff1682520186600260209081029190910151825201866003602002015190528560046020020151613cd3565b6000612afa614c12565b604080516102e0810182528c51600160a060020a0390811682526020808f01518216818401528e8401518216838501528d51606080850191909152908e01516080840152928d015160a08301528c83015160c0830152918d015190911660e082015261010081018a6001811115612b6d57fe5b8152602001896001811115612b7e57fe5b8152602001886001811115612b8f57fe5b815260808d0151600160a060020a03166020820152604001876001811115612bb357fe5b8152602081018790526040810186905260a0808e0151600160a060020a0316606083015260808201869052018c600660209081029190910151600160a060020a031682526080808e01519183019190915260a0808e0151604084015260c08e0151606084015260e08e0151918301919091526101008d01519101529050612c39816142b3565b9b9a5050505050505050505050565b61271081565b6000612c58614c12565b612c60614c12565b604080516102e08101909152808d600060209081029190910151600160a060020a03168252018d600160209081029190910151600160a060020a03168252018d600260209081029190910151600160a060020a03168252018c6000602090810291909101518252018c6001602090810291909101518252018c6002602090810291909101518252018c6003602090810291909101518252018d600360209081029190910151600160a060020a03168252018b6000602002015160ff166001811115612d2757fe5b6001811115612d3257fe5b81526020018b6001602002015160ff166001811115612d4d57fe5b6001811115612d5857fe5b81526020018b6002602002015160ff166001811115612d7357fe5b6001811115612d7e57fe5b815260808e0151600160a060020a0316602082015260608c015160409091019060ff166001811115612dac57fe5b6001811115612db757fe5b8152602081018b90526040810189905260a0808f0151600160a060020a0316606083015260808201889052018d600660209081029190910151600160a060020a03168252018c6004602090810291909101518252018c6005602090810291909101518252018c6006602090810291909101518252018c6007602090810291909101518252018c600860200201519052604080516102e08101909152909250808d600760209081029190910151600160a060020a03168252018d600860209081029190910151600160a060020a03168252018d600960209081029190910151600160a060020a03168252018c6009602090810291909101518252018c600a602090810291909101518252018c600b602090810291909101518252018c600c602090810291909101518252018d600a60209081029190910151600160a060020a03168252018b6004602002015160ff166001811115612f1057fe5b6001811115612f1b57fe5b81526020018b6005602002015160ff166001811115612f3657fe5b6001811115612f4157fe5b81526020018b6006602002015160ff166001811115612f5c57fe5b6001811115612f6757fe5b81526101608e0151600160a060020a0316602082015260e08c015160409091019060ff166001811115612f9657fe5b6001811115612fa157fe5b8152602081018a9052604081018890526101808e0151600160a060020a031660608201526080810186905260a0018d600d60209081029190910151600160a060020a031682526101a08e0151908201526101c08d015160408201526101e08d015160608201526102008d015160808201526102208d015160a09091015290506122128282614347565b60056020526000908152604090205460ff1681565b60005433600160a060020a03908116610100909204161461305f57600080fd5b613068816143d7565b50565b600080825111156130a857815180602001830160208401855b6001838310141561309f578151815260209182019101613084565b50505092909201915b50815b92915050565b6000806000845186511415156130c657600080fd5b83518651146130d457600080fd5b85516020900492506020808402925083908304146130ee57fe5b5060005b8281101561311e57600101602081028481015186820151918801805192821691199092161790526130f2565b600083111561314e5782905080600101602002808501518187015181168289015182191617828901525050613230565b50805b855181101561323057848181518110151561316857fe5b90602001015160f860020a900460f860020a02848281518110151561318957fe5b90602001015160f860020a900460f860020a021686828151811015156131ab57fe5b90602001015160f860020a900460f860020a0285838151811015156131cc57fe5b90602001015160f860020a900460f860020a0260ff60f860020a0218161786828151811015156131f857fe5b9060200101907effffffffffffffffffffffffffffffffffffffffffffffffffffffffffffff1916908160001a905350600101613151565b505050505050565b600160a060020a03166c0100000000000000000000000002815260140190565b6000613286826101200151836101400151846102400151856102600151866102800151876102a00151613432565b90505b919050565b8151815160009160019181148083146132aa57600092506132e8565b600160208701838101602088015b6002848385100114156132e35780518351146132d75760009650600093505b602092830192016132b8565b505050505b5090949350505050565b60006132fd826134c5565b604080517f19457468657265756d205369676e6564204d6573736167653a0a3332000000008152601c8101929092525190819003603c0190209050919050565b6000613348836142b3565b151561335657506000611787565b60008481526004602052604090205460ff161561337557506000611787565b60008481526005602052604090205460ff161561339457506001611787565b602080840151835184830151604080870151815160008082528188018085528c905260ff909516818401526060810193909352608083015251600160a060020a039093169360019360a0808401949293601f19830193908390039091019190865af1158015613407573d6000803e3d6000fd5b50505060206040510351600160a060020a0316141561342857506001611787565b5060009392505050565b6000808087600181111561344257fe5b1415613450578591506134ba565b600187600181111561345e57fe5b14156134ba5761348961347a86613475428861445f565b614471565b613484858761445f565b61449a565b9050600188600181111561349957fe5b14156134b0576134a9868261445f565b91506134ba565b6134a986826144af565b509695505050505050565b600080606060006134d5856144bc565b9250826040519080825280601f01601f191660200182016040528015613505578160200160208202803883390190505b50915060208201905061351c818660000151613238565b905061352c818660200151613238565b905061353c818660400151613238565b905061354c8186606001516144dc565b905061355c8186608001516144dc565b905061356c818660a001516144dc565b905061357c818660c001516144dc565b905061358c818660e00151613238565b90506135a88186610100015160018111156135a357fe5b6144e4565b90506135bf8186610120015160018111156135a357fe5b90506135d68186610140015160018111156135a357fe5b90506135e781866101600151613238565b90506135fe8186610180015160018111156135a357fe5b905061360f81866101a0015161306b565b905061362081866101c0015161306b565b905061363181866101e00151613238565b90506136428186610200015161306b565b905061365381866102200151613238565b9050613664818661024001516144dc565b9050613675818661026001516144dc565b9050613686818661028001516144dc565b905061369781866102a001516144dc565b90506136a881866102c001516144dc565b50506020012092915050565b60008083610120015160018111156136c857fe5b1480156136e55750600182610120015160018111156136e357fe5b145b8015613710575081610100015160018111156136fd57fe5b836101000151600181111561370e57fe5b145b80156137375750816102200151600160a060020a0316836102200151600160a060020a0316145b801561377157506040820151600160a060020a0316158061377157508260200151600160a060020a03168260400151600160a060020a0316145b80156137ab57506040830151600160a060020a031615806137ab57508160200151600160a060020a03168360400151600160a060020a0316145b8015613806575060e0820151600160a060020a03161580156137d9575060e0830151600160a060020a031615155b80613806575060e0820151600160a060020a031615801590613806575060e0830151600160a060020a0316155b801561382d5750816101600151600160a060020a0316836101600151600160a060020a0316145b80156138585750816101800151600181111561384557fe5b836101800151600181111561385657fe5b145b80156138735750613873836102800151846102a001516144f1565b80156117875750611787826102800151836102a001516144f1565b60008260200151600160a060020a031633600160a060020a03161415156138b457600080fd5b6138bd836132f2565b60008181526005602052604090205490915060ff16156138dc57600080fd5b600160056000836000191660001916815260200190815260200160002060006101000a81548160ff0219169083151502179055508260e00151600160a060020a03168360200151600160a060020a031682600019167f90c7f9f5b58c15f0f635bfb99f55d3d78fdbef3559e7d8abf5c81052a527662286600001518760400151886060015189608001518a60a001518b60c001518c61010001518d61012001518e61014001518f6101600151604051808b600160a060020a0316600160a060020a031681526020018a600160a060020a0316600160a060020a031681526020018981526020018881526020018781526020018681526020018560018111156139e057fe5b60ff1681526020018460018111156139f457fe5b60ff168152602001836001811115613a0857fe5b60ff168152600160a060020a039092166020830152506040805191829003019950975050505050505050a480600019167fe55393c778364e440d958b39ac1debd99dcfae3775a8a04d1e79124adf6a2d08846101800151856101a00151866101c00151876101e001518861020001518961022001518a61024001518b61026001518c61028001518d6102a001518e6102c001518e604051808d6001811115613aac57fe5b60ff16815260200180602001806020018c600160a060020a0316600160a060020a03168152602001806020018b600160a060020a0316600160a060020a031681526020018a81526020018981526020018881526020018781526020018681526020018515151515815260200184810384528f818151815260200191508051906020019080838360005b83811015613b4d578181015183820152602001613b35565b50505050905090810190601f168015613b7a5780820380516001836020036101000a031916815260200191505b5084810383528e818151815260200191508051906020019080838360005b83811015613bb0578181015183820152602001613b98565b50505050905090810190601f168015613bdd5780820380516001836020036101000a031916815260200191505b5084810382528c5181528c516020918201918e019080838360005b83811015613c10578181015183820152602001613bf8565b50505050905090810190601f168015613c3d5780820380516001836020036101000a031916815260200191505b509f5050505050505050505050505050505060405180910390a2505050565b6000613c68838361450d565b90508260200151600160a060020a031633600160a060020a0316141515613c8e57600080fd5b600081815260046020526040808220805460ff191660011790555182917f5152abf959f6564662358c2e52b702259b78bac5ee7842a0f01937e670efcc7d91a2505050565b6000805481908190819081908190819060ff1615613cf057600080fd5b6000805460ff1916600117905560208c0151600160a060020a0390811633919091161415613d3157613d218c6142b3565b1515613d2c57600080fd5b613d3e565b613d3b8c8c61450d565b96505b33600160a060020a03168a60200151600160a060020a03161415613d7557613d658a6142b3565b1515613d7057600080fd5b613d82565b613d7f8a8a61450d565b95505b613d8c8c8b6136b4565b1515613d9757600080fd5b6101608a0151803b9550935060008511613db057600080fd5b60008c6101c00151511115613dd957613dd98c6101a001518b6101a001518e6101c001516130b1565b60008a6101c00151511115613e0257613e028a6101a001518d6101a001518c6101c001516130b1565b613e168c6101a001518b6101a0015161328e565b1515613e2157600080fd5b6002546020808c0151604080517fc4552791000000000000000000000000000000000000000000000000000000008152600160a060020a0392831660048201529051919093169263c45527919260248083019391928290030181600087803b158015613e8c57600080fd5b505af1158015613ea0573d6000803e3d6000fd5b505050506040513d6020811015613eb657600080fd5b50519250600160a060020a0383161515613ecf57600080fd5b600260009054906101000a9004600160a060020a0316600160a060020a03166397204d8e6040518163ffffffff1660e060020a028152600401602060405180830381600087803b158015613f2257600080fd5b505af1158015613f36573d6000803e3d6000fd5b505050506040513d6020811015613f4c57600080fd5b5051604080517f5c60da1b0000000000000000000000000000000000000000000000000000000081529051600160a060020a0392831692861691635c60da1b9160048083019260209291908290030181600087803b158015613fad57600080fd5b505af1158015613fc1573d6000803e3d6000fd5b505050506040513d6020811015613fd757600080fd5b5051600160a060020a031614613fec57600080fd5b8291508b60200151600160a060020a031633600160a060020a0316141515614028576000878152600460205260409020805460ff191660011790555b8960200151600160a060020a031633600160a060020a0316141515614061576000868152600460205260409020805460ff191660011790555b61406b8c8b614531565b905081600160a060020a0316631b0f7ba98b61016001518c61018001518d6101a001516040518463ffffffff1660e060020a0281526004018084600160a060020a0316600160a060020a031681526020018360018111156140c857fe5b60ff16815260200180602001828103825283818151815260200191508051906020019080838360005b838110156141095781810151838201526020016140f1565b50505050905090810190601f1680156141365780820380516001836020036101000a031916815260200191505b50945050505050602060405180830381600087803b15801561415757600080fd5b505af115801561416b573d6000803e3d6000fd5b505050506040513d602081101561418157600080fd5b5051151561418e57600080fd5b6101e08c0151600160a060020a0316156141c7576141bc8c6101e001518b6101a001518e61020001516116be565b15156141c757600080fd5b6101e08a0151600160a060020a031615614200576141f58a6101e001518b6101a001518c61020001516116be565b151561420057600080fd5b60e08a01518890600160a060020a03161515614220578a60200151614226565b8c602001515b60e08c0151600160a060020a0391821691161515614248578d6020015161424e565b8b602001515b604080518b8152602081018b90528082018690529051600160a060020a0392909216917fc4109843e0b7d514e4c093114b863f8e7d8d9a458c372cd51bfe526b588006c99181900360600190a450506000805460ff1916905550505050505050505050565b600030600160a060020a03168260000151600160a060020a03161415156142dc57506000613289565b6142f0826101400151836102a00151614b11565b15156142fe57506000613289565b6001826101000151600181111561431157fe5b14801561433257506006548260a00151108061433257506007548260c00151105b1561433f57506000613289565b506001919050565b6000806000614378846101200151856101400151866102400151876102600151886102800151896102a00151613432565b91506143a68561012001518661014001518761024001518861026001518961028001518a6102a00151613432565b9050818110156143b557600080fd5b60e0840151600160a060020a031615156143cf5780611a5a565b509392505050565b600160a060020a03811615156143ec57600080fd5b60008054604051600160a060020a038085169361010090930416917f8be0079c531659141344cd1fd0a4f28419497f9722a3daafe3b4186f6b6457e091a360008054600160a060020a039092166101000274ffffffffffffffffffffffffffffffffffffffff0019909216919091179055565b60008282111561446b57fe5b50900390565b6000821515614482575060006130ab565b5081810281838281151561449257fe5b04146130ab57fe5b600081838115156144a757fe5b049392505050565b818101828110156130ab57fe5b610200810151516101c0820151516101a08301515101016101b001919050565b815260200190565b6000818353505060010190565b6000428310801561178757508115806117875750504210919050565b600080614519846132f2565b905061452681858561333d565b151561178757600080fd5b600080600080600080600080600080600160a060020a03168a6102200151600160a060020a031614151561456a57341561456a57600080fd5b6145748b8b614347565b975060008811801561459357506102208a0151600160a060020a031615155b156145b1576145b18a61022001518c602001518c602001518b614b30565b60e08a0151889750879650600160a060020a0316156148cd576080808c0151908b015111156145df57600080fd5b60018a610100015160018111156145f257fe5b141561489a5760c0808c0151908b0151111561460d57600080fd5b60008a6060015111156146b15761463361462b8b606001518a614471565b61271061449a565b6102208b0151909550600160a060020a0316151561469857614655878661445f565b60e08b0151604051919850600160a060020a03169086156108fc029087906000818181858888f19350505050158015614692573d6000803e3d6000fd5b506146b1565b6146b18a61022001518b602001518c60e0015188614b30565b60008a60800151111561474d576146cf61462b8b608001518a614471565b6102208b0151909450600160a060020a03161515614734576146f186856144af565b60e08b0151604051919750600160a060020a03169085156108fc029086906000818181858888f1935050505015801561472e573d6000803e3d6000fd5b5061474d565b61474d8a61022001518c602001518c60e0015187614b30565b60008a60a0015111156147f15761476b61462b8b60a001518a614471565b6102208b0151909350600160a060020a031615156147ce5761478d878461445f565b600854604051919850600160a060020a03169084156108fc029085906000818181858888f193505050501580156147c8573d6000803e3d6000fd5b506147f1565b6102208a015160208b01516008546147f1929190600160a060020a031686614b30565b60008a60c0015111156148955761480f61462b8b60c001518a614471565b6102208b0151909250600160a060020a031615156148725761483186836144af565b600854604051919750600160a060020a03169083156108fc029084906000818181858888f1935050505015801561486c573d6000803e3d6000fd5b50614895565b6102208a015160208c0151600854614895929190600160a060020a031685614b30565b6148c8565b6148b18a602001518b60e001518c60600151614bf5565b6148c88b602001518b60e001518c60800151614bf5565b614a4e565b6080808b0151908c015111156148e257600080fd5b60018a610100015160018111156148f557fe5b1415614a20576102208a0151600160a060020a0316151561491557600080fd5b60c0808b0151908c0151111561492a57600080fd5b60008b6060015111156149635761494861462b8c606001518a614471565b94506149638a61022001518c602001518d60e0015188614b30565b60008b60800151111561499c5761498161462b8c608001518a614471565b935061499c8a61022001518b602001518d60e0015187614b30565b60008b60a0015111156149de576149ba61462b8c60a001518a614471565b6102208b015160208d01516008549295506149de92600160a060020a031686614b30565b60008b60c0015111156148c8576149fc61462b8c60c001518a614471565b6102208b015160208c01516008549294506148c892600160a060020a031685614b30565b614a378b602001518c60e001518d60600151614bf5565b614a4e8a602001518c60e001518d60800151614bf5565b6102208a0151600160a060020a03161515614b025734861115614a7057600080fd5b8960200151600160a060020a03166108fc889081150290604051600060405180830381858888f19350505050158015614aad573d6000803e3d6000fd5b50614ab8348761445f565b90506000811115614b02578a60200151600160a060020a03166108fc829081150290604051600060405180830381858888f19350505050158015614b00573d6000803e3d6000fd5b505b50959998505050505050505050565b600080836001811115614b2057fe5b1480611787575050600010919050565b6000811115614bef57600354604080517f15dacbea000000000000000000000000000000000000000000000000000000008152600160a060020a0387811660048301528681166024830152858116604483015260648201859052915191909216916315dacbea9160848083019260209291908290030181600087803b158015614bb857600080fd5b505af1158015614bcc573d6000803e3d6000fd5b505050506040513d6020811015614be257600080fd5b50511515614bef57600080fd5b50505050565b600154614c0d90600160a060020a0316848484614b30565b505050565b604080516102e081018252600080825260208201819052918101829052606081018290526080810182905260a0810182905260c0810182905260e081018290529061010082019081526020016000815260200160008152600060208201819052604090910190815260200160608152602001606081526020016000600160a060020a03168152602001606081526020016000600160a060020a03168152602001600081526020016000815260200160008152602001600081526020016000815250905600a165627a7a72305820448bcf74466f9a494dca609e455840bf717ff06042f9530fbd4e970edf8a0b870029",
    "linkReferences": {}
  },
  "methodIdentifiers": {
    "INVERSE_BASIS_POINT()": "cae6047f",
    "approveOrder_(address[7],uint256[9],uint8,uint8,uint8,uint8,bytes,bytes,bytes,bool)": "79666868",
    "approvedOrders(bytes32)": "e57d4adb",
    "atomicMatch_(address[14],uint256[18],uint8[8],bytes,bytes,bytes,bytes,bytes,bytes,uint8[2],bytes32[5])": "ab834bab",
    "calculateCurrentPrice_(address[7],uint256[9],uint8,uint8,uint8,uint8,bytes,bytes,bytes)": "3f67ee0d",
    "calculateFinalPrice(uint8,uint8,uint256,uint256,uint256,uint256)": "63d36c0b",
    "calculateMatchPrice_(address[14],uint256[18],uint8[8],bytes,bytes,bytes,bytes,bytes,bytes)": "d537e131",
    "cancelOrder_(address[7],uint256[9],uint8,uint8,uint8,uint8,bytes,bytes,bytes,uint8,bytes32,bytes32)": "a8a41c70",
    "cancelledOrFinalized(bytes32)": "8076f005",
    "changeMinimumMakerProtocolFee(uint256)": "14350c24",
    "changeMinimumTakerProtocolFee(uint256)": "1a6b13e2",
    "changeProtocolFeeRecipient(address)": "514f0330",
    "codename()": "31e63199",
    "exchangeToken()": "a25eb5d9",
    "guardedArrayReplace(bytes,bytes,bytes)": "239e83df",
    "hashOrder_(address[7],uint256[9],uint8,uint8,uint8,uint8,bytes,bytes,bytes)": "71d02b38",
    "hashToSign_(address[7],uint256[9],uint8,uint8,uint8,uint8,bytes,bytes,bytes)": "7d766981",
    "minimumMakerProtocolFee()": "7ccefc52",
    "minimumTakerProtocolFee()": "28a8ee68",
    "name()": "06fdde03",
    "orderCalldataCanMatch(bytes,bytes,bytes,bytes)": "562b2ebc",
    "ordersCanMatch_(address[14],uint256[18],uint8[8],bytes,bytes,bytes,bytes,bytes,bytes)": "72593b4c",
    "owner()": "8da5cb5b",
    "protocolFeeRecipient()": "64df049e",
    "registry()": "7b103999",
    "renounceOwnership()": "715018a6",
    "staticCall(address,bytes,bytes)": "10796a47",
    "testCopy(bytes)": "3e1e292a",
    "testCopyAddress(address)": "3464af6a",
    "tokenTransferProxy()": "0eefdbad",
    "transferOwnership(address)": "f2fde38b",
    "validateOrderParameters_(address[7],uint256[9],uint8,uint8,uint8,uint8,bytes,bytes,bytes)": "ca595b9a",
    "validateOrder_(address[7],uint256[9],uint8,uint8,uint8,uint8,bytes,bytes,bytes,uint8,bytes32,bytes32)": "60bef33a",
    "version()": "54fd4d50"
  },
  "id": 7
}