{
  "abi": [
    {
      "constant": true,
      "inputs": [],
      "name": "alwaysFail",
      "outputs": [],
      "payable": false,
      "stateMutability": "pure",
      "type": "function"
    },
    {
      "constant": true,
      "inputs": [],
      "name": "alwaysSucceed",
      "outputs": [],
      "payable": false,
      "stateMutability": "pure",
      "type": "function"
    },
    {
      "constant": true,
      "inputs": [
        {
          "name": "calldata",
          "type": "bytes"
        }
      ],
      "name": "requireMinimumLength",
      "outputs": [],
      "payable": false,
      "stateMutability": "pure",
      "type": "function"
    },
    {
      "inputs": [],
      "payable": false,
      "stateMutability": "nonpayable",
      "type": "constructor"
    }
  ],
  "bytecode": {
    "object": "0x608060405234801561001057600080fd5b50610115806100206000396000f30060806040526004361060525763ffffffff7c01000000000000000000000000000000000000000000000000000000006000350416631a352851811460575780638727937914606b5780639e0199d814607d575b600080fd5b348015606257600080fd5b5060696052565b005b348015607657600080fd5b50606960d5565b348015608857600080fd5b506040805160206004803580820135601f8101849004840285018401909552848452606994369492936024939284019190819084018382808284375094975060d99650505050505050565b565b60d3565b805160021060e657600080fd5b505600a165627a7a72305820b7b5d3dc5e492c16ccd663c0fe6f0949c54f37821224aec24e3698dcf7f9c75d0029",
    "linkReferences": {}
  },
  "methodIdentifiers": {
    "alwaysFail()": "1a352851",
    "alwaysSucceed()": "87279379",
    "requireMinimumLength(bytes)": "9e0199d8"
  },
  "id": 2
}