{
  "abi": [
    {
      "constant": true,
      "inputs": [],
      "name": "totalSupply",
      "outputs": [
        {
          "name": "",
          "type": "uint256"
        }
      ],
      "payable": false,
      "stateMutability": "view",
      "type": "function"
    },
    {
      "constant": true,
      "inputs": [
        {
          "name": "_owner",
          "type": "address"
        }
      ],
      "name": "balanceOf",
      "outputs": [
        {
          "name": "",
          "type": "uint256"
        }
      ],
      "payable": false,
      "stateMutability": "view",
      "type": "function"
    },
    {
      "constant": false,
      "inputs": [
        {
          "name": "_to",
          "type": "address"
        },
        {
          "name": "_value",
          "type": "uint256"
        }
      ],
      "name": "transfer",
      "outputs": [
        {
          "name": "",
          "type": "bool"
        }
      ],
      "payable": false,
      "stateMutability": "nonpayable",
      "type": "function"
    },
    {
      "anonymous": false,
      "inputs": [
        {
          "indexed": true,
          "name": "from",
          "type": "address"
        },
        {
          "indexed": true,
          "name": "to",
          "type": "address"
        },
        {
          "indexed": false,
          "name": "value",
          "type": "uint256"
        }
      ],
      "name": "Transfer",
      "type": "event"
    }
  ],
  "bytecode": {
    "object": "0x608060405234801561001057600080fd5b50610246806100206000396000f3006080604052600436106100565763ffffffff7c010000000000000000000000000000000000000000000000000000000060003504166318160ddd811461005b57806370a0823114610082578063a9059cbb146100a3575b600080fd5b34801561006757600080fd5b506100706100db565b60408051918252519081900360200190f35b34801561008e57600080fd5b50610070600160a060020a03600435166100e1565b3480156100af57600080fd5b506100c7600160a060020a03600435166024356100fc565b604080519115158252519081900360200190f35b60015490565b600160a060020a031660009081526020819052604090205490565b6000600160a060020a038316151561011357600080fd5b600160a060020a03331660009081526020819052604090205482111561013857600080fd5b600160a060020a033316600090815260208190526040902054610161908363ffffffff6101f516565b600160a060020a033381166000908152602081905260408082209390935590851681522054610196908363ffffffff61020716565b600160a060020a03808516600081815260208181526040918290209490945580518681529051919333909316927fddf252ad1be2c89b69c2b068fc378daa952ba7f163c4a11628f55a4df523b3ef92918290030190a350600192915050565b60008282111561020157fe5b50900390565b8181018281101561021457fe5b929150505600a165627a7a723058200a830a8848b566ef13a43a47a0167e4646aa536d10e0cc0e21775787bc07d5de0029",
    "linkReferences": {}
  },
  "methodIdentifiers": {
    "balanceOf(address)": "70a08231",
    "totalSupply()": "18160ddd",
    "transfer(address,uint256)": "a9059cbb"
  },
  "id": 32
}