{
  "abi": [
    {
      "constant": true,
      "inputs": [],
      "name": "maximumRedeemable",
      "outputs": [
        {
          "name": "",
          "type": "uint256"
        }
      ],
      "payable": false,
      "stateMutability": "view",
      "type": "function"
    },
    {
      "constant": false,
      "inputs": [
        {
          "name": "_spender",
          "type": "address"
        },
        {
          "name": "_value",
          "type": "uint256"
        }
      ],
      "name": "approve",
      "outputs": [
        {
          "name": "",
          "type": "bool"
        }
      ],
      "payable": false,
      "stateMutability": "nonpayable",
      "type": "function"
    },
    {
      "constant": true,
      "inputs": [],
      "name": "totalSupply",
      "outputs": [
        {
          "name": "",
          "type": "uint256"
        }
      ],
      "payable": false,
      "stateMutability": "view",
      "type": "function"
    },
    {
      "constant": true,
      "inputs": [],
      "name": "multiplier",
      "outputs": [
        {
          "name": "",
          "type": "uint256"
        }
      ],
      "payable": false,
      "stateMutability": "view",
      "type": "function"
    },
    {
      "constant": false,
      "inputs": [
        {
          "name": "_from",
          "type": "address"
        },
        {
          "name": "_to",
          "type": "address"
        },
        {
          "name": "_value",
          "type": "uint256"
        }
      ],
      "name": "transferFrom",
      "outputs": [
        {
          "name": "",
          "type": "bool"
        }
      ],
      "payable": false,
      "stateMutability": "nonpayable",
      "type": "function"
    },
    {
      "constant": true,
      "inputs": [
        {
          "name": "pubKey",
          "type": "bytes"
        }
      ],
      "name": "pubKeyToEthereumAddress",
      "outputs": [
        {
          "name": "",
          "type": "address"
        }
      ],
      "payable": false,
      "stateMutability": "pure",
      "type": "function"
    },
    {
      "constant": false,
      "inputs": [
        {
          "name": "_spender",
          "type": "address"
        },
        {
          "name": "_subtractedValue",
          "type": "uint256"
        }
      ],
      "name": "decreaseApproval",
      "outputs": [
        {
          "name": "",
          "type": "bool"
        }
      ],
      "payable": false,
      "stateMutability": "nonpayable",
      "type": "function"
    },
    {
      "constant": true,
      "inputs": [
        {
          "name": "_owner",
          "type": "address"
        }
      ],
      "name": "balanceOf",
      "outputs": [
        {
          "name": "",
          "type": "uint256"
        }
      ],
      "payable": false,
      "stateMutability": "view",
      "type": "function"
    },
    {
      "constant": false,
      "inputs": [
        {
          "name": "txid",
          "type": "bytes32"
        },
        {
          "name": "outputIndex",
          "type": "uint8"
        },
        {
          "name": "satoshis",
          "type": "uint256"
        },
        {
          "name": "proof",
          "type": "bytes32[]"
        },
        {
          "name": "pubKey",
          "type": "bytes"
        },
        {
          "name": "isCompressed",
          "type": "bool"
        },
        {
          "name": "v",
          "type": "uint8"
        },
        {
          "name": "r",
          "type": "bytes32"
        },
        {
          "name": "s",
          "type": "bytes32"
        }
      ],
      "name": "redeemUTXO",
      "outputs": [
        {
          "name": "tokensRedeemed",
          "type": "uint256"
        }
      ],
      "payable": false,
      "stateMutability": "nonpayable",
      "type": "function"
    },
    {
      "constant": true,
      "inputs": [
        {
          "name": "merkleLeafHash",
          "type": "bytes32"
        },
        {
          "name": "proof",
          "type": "bytes32[]"
        }
      ],
      "name": "canRedeemUTXOHash",
      "outputs": [
        {
          "name": "",
          "type": "bool"
        }
      ],
      "payable": false,
      "stateMutability": "view",
      "type": "function"
    },
    {
      "constant": false,
      "inputs": [
        {
          "name": "_to",
          "type": "address"
        },
        {
          "name": "_value",
          "type": "uint256"
        }
      ],
      "name": "transfer",
      "outputs": [
        {
          "name": "",
          "type": "bool"
        }
      ],
      "payable": false,
      "stateMutability": "nonpayable",
      "type": "function"
    },
    {
      "constant": true,
      "inputs": [
        {
          "name": "hash",
          "type": "bytes32"
        },
        {
          "name": "v",
          "type": "uint8"
        },
        {
          "name": "r",
          "type": "bytes32"
        },
        {
          "name": "s",
          "type": "bytes32"
        },
        {
          "name": "expected",
          "type": "address"
        }
      ],
      "name": "validateSignature",
      "outputs": [
        {
          "name": "",
          "type": "bool"
        }
      ],
      "payable": false,
      "stateMutability": "pure",
      "type": "function"
    },
    {
      "constant": true,
      "inputs": [
        {
          "name": "proof",
          "type": "bytes32[]"
        },
        {
          "name": "merkleLeafHash",
          "type": "bytes32"
        }
      ],
      "name": "verifyProof",
      "outputs": [
        {
          "name": "",
          "type": "bool"
        }
      ],
      "payable": false,
      "stateMutability": "view",
      "type": "function"
    },
    {
      "constant": true,
      "inputs": [
        {
          "name": "txid",
          "type": "bytes32"
        },
        {
          "name": "originalAddress",
          "type": "bytes20"
        },
        {
          "name": "outputIndex",
          "type": "uint8"
        },
        {
          "name": "satoshis",
          "type": "uint256"
        },
        {
          "name": "proof",
          "type": "bytes32[]"
        }
      ],
      "name": "canRedeemUTXO",
      "outputs": [
        {
          "name": "",
          "type": "bool"
        }
      ],
      "payable": false,
      "stateMutability": "view",
      "type": "function"
    },
    {
      "constant": true,
      "inputs": [
        {
          "name": "addr",
          "type": "address"
        },
        {
          "name": "pubKey",
          "type": "bytes"
        },
        {
          "name": "v",
          "type": "uint8"
        },
        {
          "name": "r",
          "type": "bytes32"
        },
        {
          "name": "s",
          "type": "bytes32"
        }
      ],
      "name": "ecdsaVerify",
      "outputs": [
        {
          "name": "",
          "type": "bool"
        }
      ],
      "payable": false,
      "stateMutability": "pure",
      "type": "function"
    },
    {
      "constant": false,
      "inputs": [
        {
          "name": "_spender",
          "type": "address"
        },
        {
          "name": "_addedValue",
          "type": "uint256"
        }
      ],
      "name": "increaseApproval",
      "outputs": [
        {
          "name": "",
          "type": "bool"
        }
      ],
      "payable": false,
      "stateMutability": "nonpayable",
      "type": "function"
    },
    {
      "constant": true,
      "inputs": [
        {
          "name": "_owner",
          "type": "address"
        },
        {
          "name": "_spender",
          "type": "address"
        }
      ],
      "name": "allowance",
      "outputs": [
        {
          "name": "",
          "type": "uint256"
        }
      ],
      "payable": false,
      "stateMutability": "view",
      "type": "function"
    },
    {
      "constant": true,
      "inputs": [
        {
          "name": "pubKey",
          "type": "bytes"
        },
        {
          "name": "isCompressed",
          "type": "bool"
        }
      ],
      "name": "pubKeyToBitcoinAddress",
      "outputs": [
        {
          "name": "",
          "type": "bytes20"
        }
      ],
      "payable": false,
      "stateMutability": "pure",
      "type": "function"
    },
    {
      "constant": true,
      "inputs": [],
      "name": "rootUTXOMerkleTreeHash",
      "outputs": [
        {
          "name": "",
          "type": "bytes32"
        }
      ],
      "payable": false,
      "stateMutability": "view",
      "type": "function"
    },
    {
      "constant": true,
      "inputs": [],
      "name": "totalRedeemed",
      "outputs": [
        {
          "name": "",
          "type": "uint256"
        }
      ],
      "payable": false,
      "stateMutability": "view",
      "type": "function"
    },
    {
      "anonymous": false,
      "inputs": [
        {
          "indexed": false,
          "name": "txid",
          "type": "bytes32"
        },
        {
          "indexed": false,
          "name": "outputIndex",
          "type": "uint8"
        },
        {
          "indexed": false,
          "name": "satoshis",
          "type": "uint256"
        },
        {
          "indexed": false,
          "name": "proof",
          "type": "bytes32[]"
        },
        {
          "indexed": false,
          "name": "pubKey",
          "type": "bytes"
        },
        {
          "indexed": false,
          "name": "v",
          "type": "uint8"
        },
        {
          "indexed": false,
          "name": "r",
          "type": "bytes32"
        },
        {
          "indexed": false,
          "name": "s",
          "type": "bytes32"
        },
        {
          "indexed": true,
          "name": "redeemer",
          "type": "address"
        },
        {
          "indexed": false,
          "name": "numberOfTokens",
          "type": "uint256"
        }
      ],
      "name": "UTXORedeemed",
      "type": "event"
    },
    {
      "anonymous": false,
      "inputs": [
        {
          "indexed": true,
          "name": "owner",
          "type": "address"
        },
        {
          "indexed": true,
          "name": "spender",
          "type": "address"
        },
        {
          "indexed": false,
          "name": "value",
          "type": "uint256"
        }
      ],
      "name": "Approval",
      "type": "event"
    },
    {
      "anonymous": false,
      "inputs": [
        {
          "indexed": true,
          "name": "from",
          "type": "address"
        },
        {
          "indexed": true,
          "name": "to",
          "type": "address"
        },
        {
          "indexed": false,
          "name": "value",
          "type": "uint256"
        }
      ],
      "name": "Transfer",
      "type": "event"
    }
  ],
  "bytecode": {
    "object": "0x6080604052600060065534801561001557600080fd5b50611259806100256000396000f3006080604052600436106101115763ffffffff7c010000000000000000000000000000000000000000000000000000000060003504166308b4312b8114610116578063095ea7b31461013d57806318160ddd146101755780631b3ed7221461018a57806323b872dd1461019f5780635418796c146101c9578063661884631461023e57806370a0823114610262578063782520dd146102835780637f7614721461033f578063a9059cbb14610399578063af1d06e8146103bd578063b80ac7df146103ed578063ca193e4d14610444578063ce267b55146104bd578063d73dd62314610533578063dd62ed3e14610557578063e073ef691461057e578063e6997f6d146105fd578063f35dad4014610612575b600080fd5b34801561012257600080fd5b5061012b610627565b60408051918252519081900360200190f35b34801561014957600080fd5b50610161600160a060020a036004351660243561062d565b604080519115158252519081900360200190f35b34801561018157600080fd5b5061012b610698565b34801561019657600080fd5b5061012b61069e565b3480156101ab57600080fd5b50610161600160a060020a03600435811690602435166044356106a4565b3480156101d557600080fd5b506040805160206004803580820135601f81018490048402850184019095528484526102229436949293602493928401919081908401838280828437509497506108249650505050505050565b60408051600160a060020a039092168252519081900360200190f35b34801561024a57600080fd5b50610161600160a060020a0360043516602435610891565b34801561026e57600080fd5b5061012b600160a060020a036004351661098a565b34801561028f57600080fd5b50604080516020600460643581810135838102808601850190965280855261012b958335956024803560ff16966044359636969095608495939091019290918291908501908490808284375050604080516020601f89358b018035918201839004830284018301909452808352979a9998810197919650918201945092508291508401838280828437509497505050508235151593505060ff6020830135169160408101359150606001356109a5565b34801561034b57600080fd5b5060408051602060046024803582810135848102808701860190975280865261016196843596369660449591949091019291829185019084908082843750949750610c349650505050505050565b3480156103a557600080fd5b50610161600160a060020a0360043516602435610c5f565b3480156103c957600080fd5b5061016160043560ff60243516604435606435600160a060020a0360843516610d58565b3480156103f957600080fd5b5060408051602060048035808201358381028086018501909652808552610161953695939460249493850192918291850190849080828437509497505093359450610ddd9350505050565b34801561045057600080fd5b50604080516020600460843581810135838102808601850190965280855261016195833595602480356bffffffffffffffffffffffff19169660443560ff1696606435963696919560a495949091019282919085019084908082843750949750610dec9650505050505050565b3480156104c957600080fd5b5060408051602060046024803582810135601f8101859004850286018501909652858552610161958335600160a060020a03169536956044949193909101919081908401838280828437509497505050833560ff1694505050602082013591604001359050610e41565b34801561053f57600080fd5b50610161600160a060020a0360043516602435610ec8565b34801561056357600080fd5b5061012b600160a060020a0360043581169060243516610f6a565b34801561058a57600080fd5b506040805160206004803580820135601f81018490048402850184019095528484526105db943694929360249392840191908190840183828082843750949750505050913515159250610f95915050565b604080516bffffffffffffffffffffffff199092168252519081900360200190f35b34801561060957600080fd5b5061012b6110e7565b34801561061e57600080fd5b5061012b6110ed565b60075481565b600160a060020a03338116600081815260026020908152604080832094871680845294825280832086905580518681529051929493927f8c5be1e5ebec7d5bd14f71427d1e84f3dd0314c0f7b2291e5b200ac8c7c3b925929181900390910190a35060015b92915050565b60015490565b60055481565b6000600160a060020a03831615156106bb57600080fd5b600160a060020a0384166000908152602081905260409020548211156106e057600080fd5b600160a060020a038085166000908152600260209081526040808320339094168352929052205482111561071357600080fd5b600160a060020a03841660009081526020819052604090205461073c908363ffffffff6110f316565b600160a060020a038086166000908152602081905260408082209390935590851681522054610771908363ffffffff61110516565b600160a060020a03808516600090815260208181526040808320949094558783168252600281528382203390931682529190915220546107b7908363ffffffff6110f316565b600160a060020a038086166000818152600260209081526040808320338616845282529182902094909455805186815290519287169391927fddf252ad1be2c89b69c2b068fc378daa952ba7f163c4a11628f55a4df523b3ef929181900390910190a35060019392505050565b6000816040518082805190602001908083835b602083106108565780518252601f199092019160209182019101610837565b5181516020939093036101000a60001901801990911692169190911790526040519201829003909120600160a060020a031695945050505050565b600160a060020a033381166000908152600260209081526040808320938616835292905290812054808311156108ee57600160a060020a033381166000908152600260209081526040808320938816835292905290812055610925565b6108fe818463ffffffff6110f316565b600160a060020a033381166000908152600260209081526040808320938916835292905220555b600160a060020a0333811660008181526002602090815260408083209489168084529482529182902054825190815291517f8c5be1e5ebec7d5bd14f71427d1e84f3dd0314c0f7b2291e5b200ac8c7c3b9259281900390910190a35060019392505050565b600160a060020a031660009081526020819052604090205490565b60008060006109b48888610f95565b604080518e81526bffffffffffffffffffffffff198316602082015260f860020a60ff8f16026034820152603581018d905290519081900360550190209092509050610a00818a610c34565b1515610a0b57600080fd5b610a183389888888610e41565b1515610a2357600080fd5b6000818152600460205260409020805460ff19166001179055600554610a4a908b90611112565b9250610a5860065484611105565b60068190556007541015610a6b57600080fd5b600160a060020a033316600090815260208190526040902054610a8e9084611105565b600160a060020a0333166000818152602081815260408083209490945583518781529351929391927fddf252ad1be2c89b69c2b068fc378daa952ba7f163c4a11628f55a4df523b3ef9281900390910190a333600160a060020a03167f312ab01e6ce21dfe30ce841b1cd250767ce180d2c10a5bea492a1cb6b62eb97b8d8d8d8d8d8c8c8c8c604051808a600019166000191681526020018960ff1660ff16815260200188815260200180602001806020018760ff1660ff16815260200186600019166000191681526020018560001916600019168152602001848152602001838103835289818151815260200191508051906020019060200280838360005b83811015610ba6578181015183820152602001610b8e565b50505050905001838103825288818151815260200191508051906020019080838360005b83811015610be2578181015183820152602001610bca565b50505050905090810190601f168015610c0f5780820380516001836020036101000a031916815260200191505b509b50505050505050505050505060405180910390a250509998505050505050505050565b60008281526004602052604081205460ff16158015610c585750610c588284610ddd565b9392505050565b6000600160a060020a0383161515610c7657600080fd5b600160a060020a033316600090815260208190526040902054821115610c9b57600080fd5b600160a060020a033316600090815260208190526040902054610cc4908363ffffffff6110f316565b600160a060020a033381166000908152602081905260408082209390935590851681522054610cf9908363ffffffff61110516565b600160a060020a03808516600081815260208181526040918290209490945580518681529051919333909316927fddf252ad1be2c89b69c2b068fc378daa952ba7f163c4a11628f55a4df523b3ef92918290030190a350600192915050565b604080516000808252602080830180855289905260ff881683850152606083018790526080830186905292519092600160a060020a0385169260019260a08083019392601f19830192908190039091019087865af1158015610dbe573d6000803e3d6000fd5b50505060206040510351600160a060020a031614905095945050505050565b6000610c58836003548461113b565b604080518681526bffffffffffffffffffffffff198616602082015260f860020a60ff8616026034820152603581018490529051908190036055019020600090610e368184610c34565b979650505050505050565b6000610ebe6002876040518082600160a060020a0316600160a060020a03166c010000000000000000000000000281526014019150506020604051808303816000865af1158015610e96573d6000803e3d6000fd5b5050506040513d6020811015610eab57600080fd5b5051858585610eb98a610824565b610d58565b9695505050505050565b600160a060020a033381166000908152600260209081526040808320938616835292905290812054610f00908363ffffffff61110516565b600160a060020a0333811660008181526002602090815260408083209489168084529482529182902085905581519485529051929391927f8c5be1e5ebec7d5bd14f71427d1e84f3dd0314c0f7b2291e5b200ac8c7c3b9259281900390910190a350600192915050565b600160a060020a03918216600090815260026020908152604080832093909416825291909152205490565b600080600080610fa68660006111bd565b9250610fb38660206111bd565b91508415611076576002820615610fcb576003610fce565b60025b9050600360028285604051808360ff1660ff1660f860020a028152600101828152602001925050506020604051808303816000865af1158015611015573d6000803e3d6000fd5b5050506040513d602081101561102a57600080fd5b505160408051918252516020828101929091908190038201816000865af1158015611059573d6000803e3d6000fd5b505050604051516c010000000000000000000000000293506110de565b50604080517f040000000000000000000000000000000000000000000000000000000000000081526001810184905260218101839052905160049160039160029160418082019260209290919082900301816000865af1158015611015573d6000803e3d6000fd5b50505092915050565b60035481565b60065481565b6000828211156110ff57fe5b50900390565b8181018281101561069257fe5b600082151561112357506000610692565b5081810281838281151561113357fe5b041461069257fe5b60008181805b86518210156111b057868281518110151561115857fe5b6020908102909101015190508083101561118a57604080519384526020840182905280519384900301909220916111a5565b60408051828152602081019490945280519384900301909220915b600190910190611141565b5050929092149392505050565b6000805b60208110156112265780600802848483018151811015156111de57fe5b60209101015160029190910a60f860020a918290049091027fff00000000000000000000000000000000000000000000000000000000000000160491909118906001016111c1565b50929150505600a165627a7a72305820884226b8b09d2fadb8a374f3140eb56ffcb397ad79d283d81ce61837c5bd227f0029",
    "linkReferences": {}
  },
  "methodIdentifiers": {
    "allowance(address,address)": "dd62ed3e",
    "approve(address,uint256)": "095ea7b3",
    "balanceOf(address)": "70a08231",
    "canRedeemUTXO(bytes32,bytes20,uint8,uint256,bytes32[])": "ca193e4d",
    "canRedeemUTXOHash(bytes32,bytes32[])": "7f761472",
    "decreaseApproval(address,uint256)": "66188463",
    "ecdsaVerify(address,bytes,uint8,bytes32,bytes32)": "ce267b55",
    "increaseApproval(address,uint256)": "d73dd623",
    "maximumRedeemable()": "08b4312b",
    "multiplier()": "1b3ed722",
    "pubKeyToBitcoinAddress(bytes,bool)": "e073ef69",
    "pubKeyToEthereumAddress(bytes)": "5418796c",
    "redeemUTXO(bytes32,uint8,uint256,bytes32[],bytes,bool,uint8,bytes32,bytes32)": "782520dd",
    "rootUTXOMerkleTreeHash()": "e6997f6d",
    "totalRedeemed()": "f35dad40",
    "totalSupply()": "18160ddd",
    "transfer(address,uint256)": "a9059cbb",
    "transferFrom(address,address,uint256)": "23b872dd",
    "validateSignature(bytes32,uint8,bytes32,bytes32,address)": "af1d06e8",
    "verifyProof(bytes32[],bytes32)": "b80ac7df"
  },
  "id": 28
}